:100000008099002025D70000DD690300DDD60000BF
:10001000DDD60000DDD60000DDD6000000000000C7
:10002000000000000000000000000000A1C7000068
:10003000DDD60000000000004DC70000DDD6000046
:1000400079C800007153020079C8000079C8000027
:1000500079C8000079C8000079C8000079C800009C
:1000600079C8000079C8000079C8000079C800008C
:1000700079C8000079C8000079C8000079C800007C
:1000800079C8000079C8000079C8000079C800006C
:1000900079C8000079C8000079C8000079C800005C
:1000A00079C8000079C8000079C8000079C800004C
:1000B00079C8000079C8000079C8000079C800003C
:1000C00079C8000079C8000079C8000079C800002C
:1000D00079C8000079C8000079C8000079C800001C
:1000E00079C8000079C8000079C8000079C800000C
:1000F00079C8000079C8000079C8000079C80000FC
:1001000081F0004102E000BF83F0004330B54FEAC8
:1001100041044FEA430594EA050F08BF90EA020F35
:100120001FBF54EA000C55EA020C7FEA645C7FEAC8
:10013000655C00F0E2804FEA5454D4EB5555B8BFEB
:100140006D420CDD2C4480EA020281EA030382EA5C
:10015000000083EA010180EA020281EA0303362DEE
:1001600088BF30BD11F0004F4FEA01314FF4801CC1
:100170004CEA113102D0404261EB410113F0004FD3
:100180004FEA03334CEA133302D0524263EB43038A
:1001900094EA050F00F0A780A4F10104D5F1200E28
:1001A0000DDB02FA0EFC22FA05F2801841F1000183
:1001B00003FA0EF2801843FA05F359410EE0A5F157
:1001C00020050EF1200E012A03FA0EFC28BF4CF088
:1001D000020C43FA05F3C01851EBE37101F000453E
:1001E00007D54FF0000EDCF1000C7EEB00006EEB4B
:1001F0000101B1F5801F1BD3B1F5001F0CD34908D5
:100200005FEA30004FEA3C0C04F101044FEA44522B
:1002100012F5800F80F09A80BCF1004F08BF5FEAB2
:10022000500C50F1000041EB045141EA050130BD92
:100230005FEA4C0C404141EB0101013C28BFB1F5A4
:10024000801FE9D291F0000F04BF01460020B1FAEF
:1002500081F308BF2033A3F10B03B3F120020CDAC2
:100260000C3208DD02F1140CC2F10C0201FA0CF0A0
:1002700021FA02F10CE002F11402D8BFC2F1200C05
:1002800001FA02F120FA0CFCDCBF41EA0C019040BB
:10029000E41AA2BF01EB0451294330BD6FEA040404
:1002A0001F3C1CDA0C340EDC04F11404C4F12002EF
:1002B00020FA04F001FA02F340EA030021FA04F301
:1002C00045EA030130BDC4F10C04C4F1200220FA58
:1002D00002F001FA04F340EA0300294630BD21FA96
:1002E00004F0294630BD94F0000F83F4801306BF5C
:1002F00081F480110134013D4EE77FEA645C18BF50
:100300007FEA655C29D094EA050F08BF90EA020FE6
:1003100005D054EA000C04BF1946104630BD91EADE
:10032000030F1EBF0021002030BD5FEA545C05D1E1
:100330004000494128BF41F0004130BD14F5800420
:100340003CBF01F5801130BD01F0004545F0FE4194
:1003500041F470014FF0000030BD7FEA645C1ABFC9
:10036000194610467FEA655C1CBF0B46024650EA00
:10037000013406BF52EA033591EA030F41F400212C
:1003800030BD00BF90F0000F04BF0021704730B5B2
:100390004FF4806404F132044FF000054FF0000187
:1003A00050E700BF90F0000F04BF0021704730B548
:1003B0004FF4806404F1320410F0004548BF40421D
:1003C0004FF000013EE700BF42004FEAE2014FEA72
:1003D00031014FEA02701FBF12F07F4393F07F4F4D
:1003E00081F06051704732F07F4208BF704793F050
:1003F0007F4F04BF41F40021704730B54FF4607463
:1004000001F0004521F000411CE700BF50EA010265
:1004100008BF704730B54FF000050AE050EA01020E
:1004200008BF704730B511F0004502D5404261EB7E
:1004300041014FF4806404F132045FEA915C3FF4BF
:10044000D8AE4FF003025FEADC0C18BF03325FEA5C
:10045000DC0C18BF033202EBDC02C2F1200300FA0D
:1004600003FC20FA02F001FA03FE40EA0E0021FA32
:1004700002F11444BDE600BF70B54FF0FF0C4CF420
:10048000E06C1CEA11541DBF1CEA135594EA0C0FD2
:1004900095EA0C0F00F0DEF82C4481EA030621EA0D
:1004A0004C5123EA4C5350EA013518BF52EA033548
:1004B00041F4801143F4801338D0A0FB02CE4FF0FA
:1004C0000005E1FB02E506F00042E0FB03E54FF02A
:1004D0000006E1FB03569CF0000F18BF4EF0010E22
:1004E000A4F1FF04B6F5007F64F5407404D25FEA1E
:1004F0004E0E6D4146EB060642EAC62141EA5551D1
:100500004FEAC52040EA5E504FEACE2EB4F1FD0C12
:1005100088BFBCF5E06F1ED8BEF1004F08BF5FEA90
:10052000500E50F1000041EB045170BD06F0004642
:1005300046EA010140EA020081EA0301B4EB5C04EF
:10054000C2BFD4EB0C0541EA045170BD41F48011E7
:100550004FF0000E013C00F3AB8014F1360FDEBF0C
:10056000002001F0004170BDC4F10004203C35DAE8
:100570000C341BDC04F11404C4F1200500FA05F36B
:1005800020FA04F001FA05F240EA020001F000420C
:1005900021F0004110EBD37021FA04F642EB060182
:1005A0005EEA430E08BF20EAD37070BDC4F10C04AC
:1005B000C4F1200500FA04F320FA05F001FA04F270
:1005C00040EA020001F0004110EBD37041F100015C
:1005D0005EEA430E08BF20EAD37070BDC4F1200567
:1005E00000FA05F24EEA020E20FA04F301FA05F2CF
:1005F00043EA020321FA04F001F0004121FA04F277
:1006000020EA020000EBD3705EEA430E08BF20EA46
:10061000D37070BD94F0000F0FD101F00046400080
:1006200041EB010111F4801F08BF013CF7D041EA02
:10063000060195F0000F18BF704703F00046520006
:1006400043EB030313F4801F08BF013DF7D043EAD7
:100650000603704794EA0C0F0CEA135518BF95EA8D
:100660000C0F0CD050EA410618BF52EA4306D1D114
:1006700081EA030101F000414FF0000070BD50EA33
:10068000410606BF1046194652EA430619D094EABD
:100690000C0F02D150EA013613D195EA0C0F05D1A7
:1006A00052EA03361CBF104619460AD181EA0301FB
:1006B00001F0004141F0FE4141F470014FF00000B3
:1006C00070BD41F0FE4141F4780170BD70B54FF04E
:1006D000FF0C4CF4E06C1CEA11541DBF1CEA1355CE
:1006E00094EA0C0F95EA0C0F00F0A7F8A4EB0504B0
:1006F00081EA030E52EA03354FEA013100F08880A7
:100700004FEA03334FF0805545EA131343EA12636F
:100710004FEA022245EA111545EA10654FEA002624
:100720000EF000419D4208BF964244F1FD0404F5DD
:10073000407402D25B084FEA3202B61A65EB030539
:100740005B084FEA32024FF480104FF4002CB6EBF6
:10075000020E75EB030E22BFB61A754640EA0C0076
:100760005B084FEA3202B6EB020E75EB030E22BFB6
:10077000B61A754640EA5C005B084FEA3202B6EBF7
:10078000020E75EB030E22BFB61A754640EA9C00B6
:100790005B084FEA3202B6EB020E75EB030E22BF86
:1007A000B61A754640EADC0055EA060E18D04FEA44
:1007B000051545EA16754FEA06164FEAC30343EAE4
:1007C00052734FEAC2025FEA1C1CC0D111F4801FB1
:1007D0000BD141EA00014FF000004FF0004CB6E7AA
:1007E00011F4801F04BF01430020B4F1FD0C88BF49
:1007F000BCF5E06F3FF6AFAEB5EB030C04BFB6EB54
:10080000020C5FEA500C50F1000041EB045170BD46
:100810000EF0004E4EEA113114EB5C04C2BFD4EB73
:100820000C0541EA045170BD41F480114FF0000EF7
:10083000013C90E645EA060E8DE60CEA135594EA73
:100840000C0F08BF95EA0C0F3FF43BAF94EA0C0F76
:100850000AD150EA01347FF434AF95EA0C0F7FF4EB
:1008600025AF104619462CE795EA0C0F06D152EA3F
:1008700003353FF4FDAE1046194622E750EA410623
:1008800018BF52EA43067FF4C5AE50EA41047FF434
:100890000DAF52EA43057FF4EBAE12E74FEA410297
:1008A00012F5001215D211D56FF47873B3EB6252C2
:1008B00012D94FEAC12343F0004343EA505311F0E9
:1008C000004F23FA02F018BF404270474FF000007B
:1008D000704750EA013005D111F0004008BF6FF0B9
:1008E000004070474FF00000704700BF4A0011D22F
:1008F00012F5001211D20DD56FF47873B3EB62527A
:100900000ED44FEAC12343F0004343EA505323FA85
:1009100002F070474FF00000704750EA013002D1FA
:100920004FF0FF3070474FF00000704780F00040FC
:1009300002E000BF81F0004142001FBF5FEA4103B7
:1009400092EA030F7FEA226C7FEA236C6AD04FEAB7
:100950001262D2EB1363C1BFD218414048404140FC
:10096000B8BF5B42192B88BF704710F0004F40F4AE
:10097000000020F07F4018BF404211F0004F41F4CA
:10098000000121F07F4118BF494292EA030F3FD096
:10099000A2F1010241FA03FC10EB0C00C3F12003A9
:1009A00001FA03F100F0004302D5494260EB400038
:1009B000B0F5000F13D3B0F1807F06D340084FEAA3
:1009C000310102F10102FE2A51D2B1F1004F40EB98
:1009D000C25008BF20F0010040EA03007047490000
:1009E00040EB0000013A28BFB0F5000FEDD2B0FA9D
:1009F00080FCACF1080CB2EB0C0200FA0CF0AABFC0
:100A000000EBC25052421843BCBFD040184370475D
:100A100092F0000F81F4000106BF80F40000013263
:100A2000013BB5E74FEA41037FEA226C18BF7FEA3A
:100A3000236C21D092EA030F04D092F0000F08BF7C
:100A40000846704790EA010F1CBF0020704712F063
:100A50007F4F04D1400028BF40F00040704712F1A2
:100A600000723CBF00F50000704700F0004343F007
:100A7000FE4040F4000070477FEA226216BF08463D
:100A80007FEA23630146420206BF5FEA412390EA00
:100A9000010F40F4800070474FF0000304E000BFF6
:100AA00010F0004348BF40425FEA000C08BF7047A7
:100AB00043F0964301464FF000001CE050EA01026B
:100AC00008BF70474FF000030AE000BF50EA010280
:100AD00008BF704711F0004302D5404261EB41016D
:100AE0005FEA010C02BF84460146002043F0B64392
:100AF00008BFA3F18053A3F50003BCFA8CF2083AB7
:100B0000A3EBC25310DB01FA02FC634400FA02FCBF
:100B1000C2F12002BCF1004F20FA02F243EB0200C6
:100B200008BF20F00100704702F1200201FA02FC28
:100B3000C2F1200250EA4C0021FA02F243EB02001B
:100B400008BF20EADC7070474FF0FF0C1CEAD0525F
:100B50001EBF1CEAD15392EA0C0F93EA0C0F6FD020
:100B60001A4480EA010C400218BF5FEA41211ED0FE
:100B70004FF0006343EA501043EA5111A0FB0131EA
:100B80000CF00040B1F5000F3EBF490041EAD371BF
:100B90005B0040EA010062F17F02FD2A1DD8B3F13B
:100BA000004F40EBC25008BF20F00100704790F0AA
:100BB000000F0CF0004C08BF49024CEA502040EAFC
:100BC00051207F3AC2BFD2F1FF0340EAC2507047C2
:100BD00040F400004FF00003013A5DDC12F1190F00
:100BE000DCBF00F000407047C2F10002410021FA72
:100BF00002F1C2F1200200FA02FC5FEA310040F18A
:100C0000000053EA4C0308BF20EADC70704792F002
:100C1000000F00F0004C02BF400010F4000F013A3A
:100C2000F9D040EA0C0093F0000F01F0004C02BF35
:100C3000490011F4000F013BF9D041EA0C018FE7A4
:100C40000CEAD15392EA0C0F18BF93EA0C0F0AD0AA
:100C500030F0004C18BF31F0004CD8D180EA0100D0
:100C600000F00040704790F0000F17BF90F0004F69
:100C7000084691F0000F91F0004F14D092EA0C0F4B
:100C800001D142020FD193EA0C0F03D14B0218BFDE
:100C9000084608D180EA010000F0004040F0FE4024
:100CA00040F40000704740F0FE4040F440007047C0
:100CB0004FF0FF0C1CEAD0521EBF1CEAD15392EA3F
:100CC0000C0F93EA0C0F69D0A2EB030280EA010C2F
:100CD00049024FEA402037D04FF0805343EA1111C8
:100CE00043EA10130CF000408B4238BF5B0042F126
:100CF0007D024FF4000C8B4224BF5B1A40EA0C00CB
:100D0000B3EB510F24BFA3EB510340EA5C00B3EBFC
:100D1000910F24BFA3EB910340EA9C00B3EBD10FEA
:100D200024BFA3EBD10340EADC001B0118BF5FEA3C
:100D30001C1CE0D1FD2A3FF650AF8B4240EBC25065
:100D400008BF20F0010070470CF0004C4CEA502026
:100D50007F32C2BFD2F1FF0340EAC250704740F475
:100D600000004FF00003013A37E792F0000F00F067
:100D7000004C02BF400010F4000F013AF9D040EAE5
:100D80000C0093F0000F01F0004C02BF490011F479
:100D9000000F013BF9D041EA0C0195E70CEAD15371
:100DA00092EA0C0F08D142027FF47DAF93EA0C0F58
:100DB0007FF470AF084676E793EA0C0F04D14B023C
:100DC0003FF44CAF08466EE730F0004C18BF31F0EE
:100DD000004CCAD130F000427FF45CAF31F00043E8
:100DE0007FF43CAF5FE700BF4FF0FF3C06E000BF81
:100DF0004FF0010C02E000BF4FF0010C4DF804CDA4
:100E00004FEA40024FEA41037FEA226C18BF7FEAB3
:100E1000236C11D001B052EA530C18BF90EA010FB5
:100E200058BFB2EB030088BFC81738BF6FEAE17044
:100E300018BF40F0010070477FEA226C02D15FEAE0
:100E4000402C05D17FEA236CE4D15FEA412CE1D04C
:100E50005DF8040B704700BF844608466146FFE713
:100E60000FB5FFF7C9FF002848BF10F1000F0FBDF5
:100E70004DF808EDFFF7F4FF0CBF012000205DF8EE
:100E800008FB00BF4DF808EDFFF7EAFF34BF012073
:100E900000205DF808FB00BF4DF808EDFFF7E0FF0C
:100EA00094BF012000205DF808FB00BF4DF808ED5D
:100EB000FFF7D2FF94BF012000205DF808FB00BFC0
:100EC0004DF808EDFFF7C8FF34BF012000205DF8A2
:100ED00008FB00BF7BB972B90029BEBF00204FF0EC
:100EE000004106E008BF00281CBF6FF000414FF032
:100EF000FF3000F077B8ADF1080C6DE904CE0029A1
:100F000009DB002B1ADB00F082F8DDF804E0DDE9F4
:100F1000022304B07047404261EB4101002B1BDB10
:100F200000F075F8DDF804E0DDE9022304B040428A
:100F300061EB4101524263EB43037047524263EB62
:100F4000430300F064F8DDF804E0DDE9022304B0B7
:100F5000404261EB41017047524263EB430300F0B2
:100F600056F8DDF804E0DDE9022304B0524263EBF9
:100F70004303704753B94AB9002908BF00281CBF72
:100F80004FF0FF314FF0FF3000F02CB8ADF1080CFE
:100F90006DE904CE00F03BF8DDF804E0DDE9022362
:100FA00004B07047D0B5FFF70FFA0C4B002206468D
:100FB0000F46FFF761FAFFF799FC0446FFF7E2F9E5
:100FC000074B0022FFF758FA02460B4630463946D7
:100FD000FFF79AF8FFF78AFC2146D0BD0000F03DEC
:100FE0000000F041704700BF10B500210446FFF734
:100FF00049FF20B92046BDE81040FFF7D3BF04F1F8
:101000000040FFF7CFFF404261EB410110BD2DE9E9
:10101000F04F07468C460846099E15463C46194641
:10102000002B40F0C6808242B2FA82F746D94FB117
:10103000C7F1200E24FA0EFE00FA07F3BD404EEA77
:10104000030CBC404FEA15481FFA85FEBCFBF8F9BB
:10105000220C08FB19C309FB0EFA42EA03439A4526
:1010600028D9EB1809F1FF3004D29A4502D9A9F129
:1010700002002B44A3EB0A03A4B2B3FBF8F208FB73
:10108000123302FB0EFE44EA0344A64514D92C1980
:1010900002F1FF3303D2A64501D9931E2C44A4EBE1
:1010A0000E0443EA00401EB1FC400023346073602C
:1010B000BDE8F08F4846DDE71346F0E702B9FFDEF2
:1010C00087BB831A01214FEA154EAAB2B3FBFEFC7F
:1010D000200C0EFB1C330CFB02F840EA034398453E
:1010E00063D9EB180CF1FF3004D2984502D9ACF16A
:1010F00002002B44A3EB0803A4B2B3FBFEFC0EFBDF
:101100001C330CFB02F244EA0344A2424FD92C19CF
:101110000CF1FF3304D2A24202D9ACF102032C44F9
:10112000A41ABEE7C7F1200C20FA0CF800FA07F366
:1011300024FA0CFCBD404CEA03024FEA154EABB258
:10114000B8FBFEFC110C0EFB1C800CFB03F941EA02
:101150000040814504FA07F423D928180CF1FF3127
:1011600004D2814502D9ACF102012844A0EB090068
:1011700092B2B0FBFEFC0EFB1C000CFB03F842EA33
:10118000004398450FD9EB180CF1FF3204D2984573
:1011900002D9ACF102022B44A3EB080342EA01415D
:1011A00091E76146E2E76246F6E76046A2E76346FA
:1011B000B6E7834205D90EB1C6E9007000210846A2
:1011C00076E7B3FA83F181B9834201D3BA420AD8F0
:1011D000BC1A60EB030301209C46002E68D0C6E9D0
:1011E000004C002164E70846F7E7C1F1200C8B4072
:1011F00022FA0CF41C4302FA01F500FA01F327FA73
:101200000CF220FA0CFB4FEA14491343BBFBF9F82C
:101210001FFA84FE09FB18BB1A0C08FB0EFA42EAFF
:101220000B42924507FA01F73ED9A21808F1FF30A8
:1012300004D2924502D9A8F102002244A2EB0A028C
:101240009BB2B2FBF9F809FB182208FB0EFE43EA39
:10125000024296452AD9A21808F1FF3304D29645D6
:1012600002D9A8F10203224443EA0040A0FB0593FF
:10127000A2EB0E029A42CE46984602D306D14F45C3
:1012800004D2B9EB050E63EB0408013886B1B7EB65
:101290000E0362EB080707FA0CFCCB404CEA030391
:1012A000CF40C6E900379CE74046C7E74346DBE747
:1012B0003146FDE6000000002DE9F04788B000AFA0
:1012C00005460C469246B24839F01EFA06460028FA
:1012D00000F0B180AE488368DB6839219847002868
:1012E00040F0FA80AA4883681B6907F108020321CD
:1012F0009847B868FFF756F880468946F868FFF7C0
:1013000051F8A1A3D3E90023FFF7E0F902460B4609
:1013100040464946FEF7FAFE00229E4BFFF7ACF826
:10132000FFF7BCFA28803869FFF73CF88046894609
:101330007869FFF737F894A3D3E90023FFF7C6F9DC
:1013400002460B4640464946FEF7E0FE0022914B1E
:10135000FFF792F8FFF7A2FA2080B869FFF722F8AA
:1013600080468946F869FFF71DF887A3D3E9002373
:10137000FFF7ACF902460B4640464946FEF7C6FE6B
:101380000022844BFFF778F8FFF788FA00B2AAF83A
:101390000000B5F900C0B4F900506C468AB0694647
:1013A00011F1100200F0EA8018232AB1042B03DDAA
:1013B000DFF8E4E1C1F814E02AB1082B03DDDFF81F
:1013C000DCE1C1F818E01AB10C2B01DDC1F81CC03A
:1013D00012B1102B00DD0D6212B1142B00DD48623A
:1013E000172B40F3CE8018233AB106203871002025
:1013F0007871B871F8717868086100216FF30001A5
:101400006FF341016FF382016FF3C501042060F3B4
:10141000881103F47F7363F352216FF3DE416FF39E
:10142000DF7100235E4809F073F8A5463046203787
:10143000BD46BDE8F087564B186802233B716C46E9
:1014400088B06B4613F1100237D00D251AB1042D68
:1014500001DD544959610221397012B1082D00DDB6
:1014600098611AB103F11C01002048B30C2D30DD46
:101470000D2542B10321397100217971B971012122
:10148000F9717868186100216FF300016FF3410171
:101490006FF382016FF3C501012363F38811C5F374
:1014A000090565F352216FF3DE416FF3DF7100230D
:1014B0003B4809F02DF8A546B8E76FF00045C5E7B1
:1014C00007F1200C84441CF820CC01F801CB01303A
:1014D000CBE76FF01B05CCE72D4B186802233B715F
:1014E0006C4688B06B4613F1100238D00D251AB146
:1014F000042D01DD2C4959610221397012B1082DEA
:1015000000DD98611AB103F11C01002050B30C2DCD
:1015100031DD0D2542B10321397100217971B97195
:101520000121F9717868186100216FF300016FF3F0
:1015300041016FF382016FF3C501012363F3881149
:10154000C5F3090565F352216FF3DE416FF3DF71D7
:101550000023134808F0DCFFA546002666E76FF07D
:101560000045C4E707F12006064416F8206C01F890
:10157000016B0130CAE76FF01B05CBE76FF000434A
:1015800013E76FF01B032FE70000000080842E415B
:1015900034AD03000000A04050C00300A0C0030011
:1015A00090B103000CBF030030C003000000000036
:1015B00001A1D1E9000170473F71890010000000CE
:1015C0002DE9F041D0E90B35866A5C193034A6422A
:1015D0008846174618D81C4DA3FB050118A3D3E96C
:1015E0000023FFF7C7FCA41B20F07F40C8F80000D1
:1015F00013A3D3E90023A4FB0501FFF7BBFC20F0F4
:101600007F403860BDE8F0810F4C0DA3D3E9002383
:10161000A6FB0401FFF7AEFC05F1300120F07F408E
:10162000C8F8000006A3D3E90023A1FB0401FFF7DB
:10163000A1FC20F07F403860BDE8F081AFF300806E
:101640008D49FD1A0700000000CA9A3B0000000007
:101650002DE9F0471E468AB04FF6FF739E429DF873
:1016600048A0139C88461CD023780133DBB2814606
:101670001746237073B3504D504B85F80AA004F100
:101680001C010022E96001201146C5E900972E8166
:101690009D6015F0EDFA60B9636D13B120461BF043
:1016A000BFFE94F8240010F0010521D00AB0BDE877
:1016B000F087434A4349444840F6DE0334F040FA99
:1016C000404080F311884FF0030002DF636D002B70
:1016D000E4D1E6E73A4A3D493B4840F6D10334F0CD
:1016E0002FFA404080F311884FF0030002DFC2E779
:1016F000042109A824F034F9099B35490095A1FB80
:101700000321344A0694CDE90355CDE90155284615
:101710005D1A01EB5501A21A2F4DD208A5FB02520A
:10172000090A520840F2471505FB113302322B49D2
:1017300005910133D2B20121099316F035FD30F045
:1017400002030CD01E4A26491F4840F2737334F03E
:10175000F7F9404080F311884FF0030002DFB4F83E
:101760009430D4F8985001363344A4F89430002DC6
:101770009CD0D4F888301B489122A3FB000102FBC7
:1017800003110BA3D3E90023FFF7F4FB20F07F4004
:1017900000FB0688454586BFA5EB0805C4F89850B0
:1017A000C4F898000AB0BDE8F08700BFAFF300802E
:1017B0008D49FD1A07000000C03C00200C080020E5
:1017C00014F103006CF0030058B6030044F2030068
:1017D00021F1D490583B002019866118D1BD010039
:1017E00048F20300002AE7842DE9F04F97B00A93EE
:1017F000002900F00D810128054600F21C81DFF868
:10180000D8824FF0A80909FB008900EB400499F841
:101810009C30C4EBC4041746DE074FEAC4020B92A7
:1018200008EBC40400F1668194F8293004EB8303CB
:101830002046D3F82CA094F83D3004EB83035146A6
:10184000D3F840B05A461AF0F7F90646002840F09F
:10185000DB809AF8003013F00E0F00F0E38003F005
:101860000F03072B00F0D98017F03AF8002840F05A
:101870008C82A82303FB05831865A3F89600C3F8A0
:1018800098004FF0A80909FB0589002794F8253036
:10189000A9F8947094F82420C3F38203C2F342029F
:1018A00001210DF145000A938DF8452015F014FB38
:1018B000002800F001810A9B0246594650461AF062
:1018C00071FBDDF82CC08549B9F888200A923123D4
:1018D00008F80C70A0FB0101C4E90577C9E90173A0
:1018E000C9F80C707AA3D3E90023FFF743FBC9F8CA
:1018F000100016F029FD0A9B834643B99AF8007040
:1019000007F00F07A7F10107B7FA87F77F0994F8E7
:10191000240067F3000010F0010384F824000C9306
:1019200040F092804FF0A80909FB0589A36DD9F812
:1019300010A04BB11B680D9393F8623003F00303C2
:10194000012B0F9300F0AE82676D002F40F0718283
:10195000CDE90D7714AB0B930B9A08922BB2604A2A
:10196000DDF828E05F48CDF810A005EB450C03EB4F
:1019700043030AF2471102EB830309930694AEFB7B
:10198000000342F82C10912101FB0E31564B0793B6
:10199000564B05930223149305EB030A4FF6FF738E
:1019A0004FF0000903934AA3D3E90023CDF8089030
:1019B000FFF7E0FA5FFA8AFA019003215B4652468C
:1019C000CDF80090484616F027FB0B9919F070FAF5
:1019D000002871D10E9B73B197F85A3043F0010380
:1019E00087F85A300C9B33B10D9A92F8623043F06D
:1019F000020382F86230A82303FB058595F89C302A
:101A000043F0010385F89C30304617B0BDE8F08FF5
:101A100017B0BDE8F04F19F0D5BF9AF8023059065B
:101A20007FF522AF236A002B00F0A0800C26304601
:101A300017B0BDE8F08F16F053FF0028F6D100264E
:101A4000304617B0BDE8F08FA82303FB058306944A
:101A50001B690493019314AB00200893DFF888906E
:101A6000224B0593AA1C0321CDE902000090CDF87A
:101A70001C90D2B25B460227149716F023FB14A9E0
:101A800019F016FAC0B91A4A059214A94AF2D832C6
:101A9000089100920321CDE90300CDE90100CDF8C2
:101AA0001C905B4606940122149716F00BFB14A9B8
:101AB00019F0FEF900289ED0A82000FB05852B6AAE
:101AC000002BB3D0204619F039FFAFE7AFF3008009
:101AD0008D49FD1A07000000583B002000CA9A3BC0
:101AE000A83C0020002AE784D9A20100511600007A
:101AF000A1B7010016F0F4FE0028A0D099F89C30A0
:101B0000D80793D594F83D3004EB830320461A6C34
:101B100094F8293004EB8303D96A1AF08DF806464D
:101B200000287FF471AFD9F85040002C3FF47EAF0D
:101B3000237903F0FF02A3B9D9480A9BA9F896308C
:101B4000A7FB000140F61813A9F8942003FB071126
:101B5000D1A3D3E90023FFF70DFA20F07F40C9F8A5
:101B600098002379002B3FF46AAF5FE719F0E6F89D
:101B70000C90002800F02B8119F0ECF80D90002853
:101B800000F022811DF046FF8146002800F01981F7
:101B90004FF6FF73D0F88800A9F8283009F11C032C
:101BA0000E93002800F0718109F17C0209F178019F
:101BB00014F0DCFF99F88E2022F00702002389F848
:101BC0008E2099F87620A9F88C3063F3C302C9F807
:101BD00088309AF8003089F8762003F00F03072B3D
:101BE00000F01681B9F8763023F4EE6323F0070392
:101BF00043F4887343F00103A9F87630B9F8D23082
:101C000099F8F31099F8F42023F4FF7323F00103FB
:101C100043F00403A9F8D23099F8393003F03F03B8
:101C200063F07F0389F8393099F83C3023F00703DB
:101C300089F83C3099F8C231002060F3000389F83C
:101C4000C2314FF00003A9F82E307F2389F8D1303C
:101C50000E2389F8D63060F3000160F300024FF4E0
:101C6000C023C9E9120089F8F31089F8F420C9F8F3
:101C7000300089F83B00C9F85000A9F8B601A9F86E
:101C8000AC01C9F8B0310622FF238DF848000DF1F0
:101C9000490109F2C3108DF849308DF84A308DF8AA
:101CA0004B308DF84C308DF84D308DF84E3034F08F
:101CB000D0FF99F8C221002363F3410289F8C221C1
:101CC0000DF1510106228DF8503009F2C910FF23A1
:101CD0008DF851308DF852308DF853308DF85430E6
:101CE0008DF855308DF8563034F0B3FF484601F08A
:101CF000C7FA4FF0000389F878310C9BC9F87C31A2
:101D00001EF06CF999F8BC3160F3020389F8BC311C
:101D10001EF06AF999F8BC3160F3C50389F8BC314B
:101D200099F8A831002262F3410389F8A8319AF8A2
:101D3000003003F00F03072B0ABF94F82510012190
:101D4000490948461EF060FE09F582701FF074FED6
:101D5000A82303FB05830C9AC3F880200D9AC3F8CF
:101D6000842009F11C0323620023C9E90533C9F863
:101D70001C9089F8003024F0EFF800283FF474AD8F
:101D8000204619F0DBFD03263EE618F0D7FF81461A
:101D9000F8B118F0DFFF002800F09680C0F800903E
:101DA0004FF0A80909FB058900230371C9F8500009
:101DB00094F82420D20717D5A9F89630C9F898309E
:101DC0005FE50D9818F0CCFF0C9818F0BDFF0726C2
:101DD0001AE6A82303FB05852B6A002BF7D02046C3
:101DE00019F0ACFD07260FE62D480A9BA9F896309E
:101DF000A7FB000140F6181303FB071126A3D3E944
:101E00000023FFF7B7F820F07F40C9F8980038E5C5
:101E100094F82530D2B25B0963F3020263F3061231
:101E200089F8762099F8772063F3020289F8772001
:101E3000E4E60AF102033F685B44149314AB1946CD
:101E400038460B9300F0DCF900230E900D93A82385
:101E500003FB058342F6DC30D3F88820002140F2F2
:101E60007123E2FB030140F2E2420023FFF782F814
:101E70000E9AA7F848001499384600F065F9002832
:101E80007FF41AAE01230E9366E509F18000C9F8CC
:101E9000880089E6AFF300808D49FD1A0700000035
:101EA00000A0724E0DF1470314A901930DF14603F2
:101EB0000B9100930C9A0B462046202100F03CFA2F
:101EC0000C9068B106469FE5A82303FB05852B6AA5
:101ED00013B1204619F032FD484618F035FF76E779
:101EE00004220DF1510112A834F0B3FE12990D989D
:101EF0001CF0B0FB676D87B33F680B990AF10203D2
:101F00005B443846149300F07BF9FF2211460E9093
:101F100038461BF03FFA144911A3D3E90023A0FB74
:101F20000101FFF727F8149B0E99023320F07F423E
:101F30000B441A440D99204600F062FF00287FF4FC
:101F4000BBADD9F854300F9A0C929DF847205A75C2
:101F50009DF8463084F8293079E70E97FCE400BFFD
:101F60008D49FD1A0700000000CA9A3B00000000DE
:101F7000F0B5C469B4F8963083B053B1B4F8942086
:101F80009A4206D3266D00224323A4F8962033728A
:101F90001BE0D4F89850002D54D0D4F88830304845
:101FA0009122A3FB000102FB03112BA3D3E9002321
:101FB000FEF7E0FF20F07F4085424FF0000741D858
:101FC000266DC4F898703C233372264D264A651B53
:101FD000ED08A2FB0535C5F34705012D0CD9234AB1
:101FE0002349244840F2DB7333F0AAFD404080F3DC
:101FF00011884FF0030002DF12233371606DB4F8D3
:10200000943073724FF6FF727281F580E0B1006810
:102010001BF01AF9021D184B0094D2B201210020C6
:1020200016F0DAF830F002030CD0104A13491148C8
:1020300040F2F47333F084FD404080F311884FF098
:10204000030002DF03B0F0BDAA1C0D4B0094D2B216
:10205000012116F0C1F8E5E78D49FD1A07000000DF
:10206000002AE784583B00201986611814F1030008
:1020700054F1030058B603006DBD010060F1030088
:1020800025BD010000000000F0B590F8243090F864
:1020900025708BB0C3F342030D46044601210DF1B8
:1020A000230016468DF8233014F016FFC7F382077D
:1020B00002463B463146284619F074FF1E491CA3D0
:1020C000D3E90023A0FB0101FEF754FF23699842E6
:1020D000054621D21B1A00220192184A0293A21A25
:1020E000174BD208A3FB02320221520800230A44F4
:1020F00009AE099113490591CDE903330321D2B209
:1021000006960093184616F04FF8314618F0D0FEA8
:1021100048B925610BB0F0BD02D9C21A0023DBE734
:1021200000200BB0F0BD0C200BB0F0BDAFF3008071
:102130008D49FD1A0700000000CA9A3B583B002059
:1021400019866118D9A201002DE9F04300268DB04F
:1021500004460F46C0E905662549067015465C220F
:1021600014F0E4FC069403962269B4F84830154450
:1021700040F2E244049503FB04F41E4D1E4B07930A
:102180001E4B0593A4FB055402230DF12C090B9360
:1021900000F104082146284613A3D3E90023CDF813
:1021A0002090FEF7E7FE104619464FF47A7200239E
:1021B000FEF7E0FE0CA3D3E9002302902146284657
:1021C000FEF7D8FE5FFA88F8CDE900603B4642464C
:1021D0003046032115F076FF494618F069FE0DB030
:1021E000BDE8F083AFF300808D49FD1A07000000C1
:1021F000043D002000CA9A3BD9A2010075CA010023
:1022000070B5036A1E4E93F821200D4603EB82033E
:1022100090F831105A6A00EB810382B0596B044682
:102220001AF0F0FB00233122C4E90132E360A0FB85
:10223000060111A3D3E90023FEF79CFEFF2220F044
:102240007F401146206120461BF0A4F80AA3D3E981
:102250000023A0FB0601FEF78DFE01AA20F07F41BE
:10226000032001F039FB10B9019B01332B600020E2
:1022700002B070BDAFF300808D49FD1A0700000069
:1022800000CA9A3B0000000090F803C070B50446F5
:1022900025481CF0010F18BF0A3415461E464FF0A2
:1022A0000702A1FB000308BF04341CF0020F18BF93
:1022B000063402FB01311CF0080F19A3D3E90023F7
:1022C00018BF0234FEF756FEAD1B184B2844A3FB83
:1022D0000023590C4FEA131512D01549A378227820
:1022E000A1FB0010C0F3471123F01F03C0F34430DB
:1022F000184342F08003A07061702370204670BDC7
:10230000A278657022F01F02C3F3043313432278CE
:10231000A37061F3C7122270204670BDAFF3008036
:1023200000CA9A3B000000008D49FD1A8988888800
:10233000B5814E1B000000002DE9F04F40F201274F
:10234000A3B01E4637EA01030D4604460C9200F086
:10235000058194F8293004EB8303D3F82C9099F885
:10236000008008F00F0805F40073B8F1070F0A9316
:1023700017D02BB94FF00C08404623B0BDE8F08FC2
:102380003146042211F8015B20A834F062FC209A47
:10239000294620461AF06AFA8046404623B0BDE836
:1023A000F08F09F1040299F8023009920A9A13F0A9
:1023B0003F0B18BF99F803B012B1DB0940F07083EE
:1023C0002C9904F1280024F035F899F8003003F036
:1023D0000F02037823F03F0313430246074602F837
:1023E000023B99F80230817813929B09626D63F386
:1023F000871181704FF0000A04F11C00002A00F0E0
:102400003183537D02EB8303996913681293CB7870
:102410000B9102310F9103F001010E910D930B9B73
:102420002D9902F114001A1D1E9224F003F80B9B43
:102430003A7819780D9B8046C2F30302C1F38010ED
:1024400042EA801201F080010A4388F80020BA783D
:1024500098F80210920962F3871188F8021008F1C7
:10246000040215F001011D924FF0010A0BF0010268
:1024700040F08280002A00F0578199F8002098F8F7
:102480000000C2F3801262F3861088F800003A78E8
:1024900061F386123A7009F10A0209920E9A002A33
:1024A00040F0538108F10A021D921BF0020F03F065
:1024B00002021B9200F02281099A98F8001006325D
:1024C000099299F80020D20962F3C71142464FF0F1
:1024D000030A02F8101B1D923A786FF3C7123A7084
:1024E00003F0020212B11E9A06321E921BF008027D
:1024F000169202D0099A0232099215F0080240F0B1
:102500002E811F921D9A02324AF0080A1D9213F082
:102510000802179202D01E9A02321E921BF010027D
:10252000189202D0099A033209924FF018028DF8DE
:10253000502007F109020D92E90603F010021092F3
:1025400029D40C9AD20633D403F01002002A00F0EA
:10255000AA821E9A15924AF0100A30E08D4A8E49DE
:102560008E4840F2855333F0EBFA404080F31188F7
:102570004FF0030002DFECE616F801CB98F80000FC
:102580006CF3861088F8000038786FF38610387086
:10259000002A83D07FE73046032200F8012B1DA9D3
:1025A0000422119334F055FB119B4AF0100A0536B2
:1025B000109A002A00F0D08000211E9A1591033253
:1025C0001E921AF0100F5FFA8AF102D01D9A0332A0
:1025D0001D9203F02002AD0611920ED40C9A9006C3
:1025E0001AD403F020001E9A002800F060824AF0FE
:1025F0002005AA46E9B2199215E03046122200F8E9
:10260000012B1DA9042219934AF0200534F021FB67
:10261000199B0536AA46E9B211981E9A002800F0C7
:1026200098800020199012321E92890602D51D99B9
:1026300012311D911BF0400F10D009990131099101
:1026400094F8251001F01C01102900F050824FF081
:1026500058018DF8501007F10A010D915D0603D560
:1026600001321E924AF0400A1AF040031A9302D037
:102670001D9B01331D930D9B1399A3EB010B5FFA77
:102680008BFBBBF1020F03D8FB1C0D934FF0010B2A
:102690000F9BD21AD2B2022A03D80B9B03331E938C
:1026A00001220B9B5B78934271D31D9D08F10201BF
:1026B0006D1AEDB2022D03D808F103011D91012519
:1026C0000A99002940F0B0810C99880568D49B1ABA
:1026D000DBB20A931E9B20930A9AAB18FF2B40F3A0
:1026E000098201352A44B945327000F017820B9BEC
:1026F000984500F00C824FF045083DE679B903F0AB
:10270000020262B10B9A98F800101278D20962F3B3
:10271000C71142464FF0030A02F8101B1D923A7887
:102720006FF3C7123A70DBE60E9A002A2FD00B9A8D
:1027300098F800001278C2F3801262F3861088F8CD
:1027400000003A7861F386123A701E9A06321E92A1
:10275000A8E61198199068E7109A159231E731466A
:10276000022201F8012B1FA8042210930D9134F0CE
:1027700070FA0D99042208461DA934F06AFA1D9AD0
:10278000109B02324AF0080A05361D92BFE64FF050
:102790001F08F1E504F30300C8F3030058B6030073
:1027A0000A9B209319462B460022B87887F801B07F
:1027B0000BF1FF3B6BF30500B87088F8013098F817
:1027C00002301D98013D65F3050388F8023034F0AE
:1027D0002DFA98F80230990600F02081149B5A06D1
:1027E00000F169811A9B4BB1DDE91D32511E1E912A
:1027F000591E1D9112F8012C03F8012C119B13B1E5
:102800001E9B123B1E935FFA8AF39B0602D51D9B0B
:10281000123B1D93199B23B11D981946122234F0C7
:1028200005FA189B13B1099B033B09930D9E94F87D
:10283000253016F8032C6FF3050206F8032C5D090A
:1028400023F0DEFB16F8011C16F8032C32288CBF8F
:102850000020012095FAA5F3002DB3FA83F301F0CF
:10286000E00108BF4FF0FF3363F3471160F38612B6
:10287000002363F3C71206F8023C109B06F8011C04
:1028800006F8032C13B11E9B033B1E931D985FFAA1
:102890008AF3DE06159B44BF03381D9023B1032243
:1028A000194634F0C3F91D98169B13B1099B023BDE
:1028B0000993179B13B11E9B023B1E930D9D94F829
:1028C000922015F8043C02F00F0262F30713811EF8
:1028D0001D9105F8043C10F8013C1F9962F30713A1
:1028E00000F8013C002900F009814B780A7803F0D8
:1028F0000F0342EA03230D9911F8042C22F00F0272
:1029000042EA132201F8042CDAB201F8052C00F88F
:10291000022C10F8012C22F00F0242EA132300F8D7
:10292000013C5FFA8AF39D070BD51B9B002B00F03F
:10293000FA801E9906391E91083806221D9034F03F
:1029400088F95FFA8AF3D8070CD50E9B002B00F0AC
:10295000EF801E9906391E911D98062206381D909B
:1029600034F077F9BB780B9899061CBF9DF850306E
:10297000FB7098F802309A0694F8263018BF88F851
:1029800003A003F00103009394F82530159A4FF447
:1029900096715B09019141461AF050FE129B93F823
:1029A0005A30DB073AD594F83D30129D04EB83048E
:1029B0004146226C28461AF025F8634960A3D3E902
:1029C0000023A0FB0101FEF7D5FA2D6920F07F441A
:1029D000AC4280F0B0802E1B0025129F5B49022381
:1029E0005C223846219314F0A1F800235849019540
:1029F000021D21ADCDE90333D2B2009318460591F3
:102A000002960321069515F0CFFB294618F050FADF
:102A1000804600287FF4AEAC3C61ADE44FF0000886
:102A2000404623B0BDE8F08F31469B1ADBB23278C6
:102A300001F8013B0A9220A804220F930C9134F074
:102A400008F90C99042208461EA934F002F90A9BE1
:102A50000536002B7FF440AE20990F9B00297FF4B0
:102A6000A2AE36E61AF038FC129078B3DDF848E0F2
:102A7000CDF838A09EF831200EEB82020121506B78
:102A80000B9084461CF8022BCDF83CC002F03F03AB
:102A90000370417080F803A00EF11C025346BDE4A0
:102AA0004FF0120868E403F01002159289E503F074
:102AB00020001990B9E5099A0D9912F8013C01F826
:102AC000013C531E09934B1E0D9397E6B9457FF4C5
:102AD00053AC204A204921484FF4B76333F030F813
:102AE000404080F311884FF0030002DF44E44AF0D5
:102AF000400AB3E50A9A2099DBB256E6184931F844
:102B000012305D1C21F81250C3F30B03F3E62D9A2B
:102B1000636D12785A754FF045082DE42C9B1B7895
:102B200084F82930E3E5099B063B0993194603E73E
:102B3000099B991F10E77FF671AF651B00264CE7D4
:102B40008D49FD1A0700000000CA9A3B043D002091
:102B5000D9A2010004F3030018F4030058B60300DF
:102B6000D43C0020000000002DE9F04F836D98490F
:102B7000DFF860B2DFF860A293B0682209931B68A7
:102B80000B9018460A9313F0D1FF0025861DFF23F2
:102B9000CDE90E55F6B28DF8353004240DF1440818
:102BA0000DF136070DF138090CE00F9BAB4202D056
:102BB00074B3013CE4B29DF83530FF2B3BD09E420C
:102BC0004AD00F9D854B0593002010ABCDE90093B3
:102BD0000221CDE90300CDF8188002970FAB0DF16B
:102BE0003502119115F03AFB022800F0D680119BB6
:102BF000002BDAD07A4940F62A035A46504632F082
:102C00009FFF404080F311884FF0030002DFCCE7C4
:102C1000744940F62C035A46504632F091FF40402A
:102C200080F311884FF0030002DF9DF83530FF2B51
:102C30004FF0FF04C3D16C4940F62E035A4650466C
:102C400032F07EFF404080F311884FF0030002DF36
:102C50009DF835309E42B4D1109B64490E9FA3F578
:102C60007422A2F510728A4207D903F1E873013F7A
:102C700003F5D4330E9703F5A5730A9A5C4E526E92
:102C8000A6FB03139E0C5949A2F57423A3F51073F8
:102C90008B4207D902F1E872013702F5D4320E9760
:102CA00002F5A5720B9B596D514B487DA3FB022386
:102CB0000A7D9D0C82421095D3B204D00133DBB261
:102CC000022B08BF002301EB83039C69E378D8073C
:102CD00048BF0A34474858BF0434990748BF0634F0
:102CE0001A0748BF0234A7FB0001DB064FF00703B9
:102CF00003FB071134A3D3E9002348BF0334FEF7D5
:102D000039F9731B1844B0F5161F05D3637843F0E7
:102D10004003A0F516106370374BA3FB0023590C3A
:102D20004FEA131245D0354A6378A2FB0020C0F366
:102D3000443223F01F031343C0F3471043F0200332
:102D4000207063700998BDF83620018A838A0B448D
:102D50001344238290F8242090F825108A429BB2D5
:102D600005D0C08C1B1A13F4004F18BF1146099AE6
:102D7000062303FB012118310522201D33F069FFD2
:102D8000237A03F01F03237223F038F9237A43EAEE
:102D90004013237213B0BDE8F08F119B022B7FF418
:102DA00026AF0221002015F0B7FA119B022BF8D0B4
:102DB0001DE722706278C3F3043322F01F0213432D
:102DC00061F345136370BDE700CA9A3B0000000041
:102DD000E03D0020BCF4030058B6030035E40100D8
:102DE00060F3030068F3030098F30300BFBDF07FB6
:102DF00083DE1B438D49FD1A89888888B5814E1B67
:102E00002DE9F04791F84530314F002501EB830360
:102E10000D709B6C8D610C464D618CB059782046CD
:102E200090461BF0FDFB3123C4E90153E56026A366
:102E3000D3E90023A0FB0701FEF79CF8B4F860601B
:102E4000244920F07F400DF12C09206140F2E2433B
:102E50006822204603FB06F613F068FECDF82090AA
:102E600006942369CDE903531B4B07931B4B059332
:102E7000A6FB07A606300223C7B20B935046314685
:102E800011A3D3E90023FEF775F8104619464FF455
:102E90007A720023FEF76EF80BA3D3E900230290A9
:102EA00031465046FEF766F84346CDE900503A46B3
:102EB0002846032115F006F9494617F0F9FF0CB032
:102EC000BDE8F087AFF300808D49FD1A07000000D0
:102ED00000CA9A3BE03D0020D9A201008DE4010028
:102EE000F0B549788BB004461BF09AFB1E491CA331
:102EF000D3E90023A0FB0101FEF73CF8266920F08E
:102F00007F45AE421FD9761B00270223174909933C
:102F10006822204613F00AFE002315490296821DFE
:102F200009AE0591CDE903330321D2B20197009395
:102F30001846069615F038F9314617F0B9FF48B92A
:102F400025610BB0F0BD02D2AF1B0026DDE70020EB
:102F50000BB0F0BD0C200BB0F0BD00BFAFF3008094
:102F60008D49FD1A0700000000CA9A3BE03D002091
:102F7000D9A20100000000002DE9F04FB0F8409107
:102F8000468EB0F82EB0D0F83C7191B04E44BDF8EA
:102F90007450BDF868800B915E44B6B2CDE90E2343
:102FA000721B92B283680A92BDF86C200C92002BBF
:102FB000BDF870200D92044609DAC168426823F01A
:102FC000004391422CBF7F18BF188360FF1A0A9BF1
:102FD000608D10FB03F080B2B0FBF8F118FB01F339
:102FE0009BB298421FFA81FA80F0C9801B1A964959
:102FF00040F2E24003FB00F0A0FB010190A3D3E903
:103000000023FDF7B7FF20F07F400744D9444D442B
:10301000AE1B94F839305644E685DB0940F2E246AF
:1030200006FB08F540F0BC80884A8949894841F68A
:103030002A7332F085FD404080F311884FF0030081
:1030400002DF0026A9460C9B0D9AA38542F210735D
:1030500003FB025329462046A4F82A80013BB3FB18
:10306000F5F3A4F8B4311EF033FF7B4BA18D2B4454
:10307000881DB3FBF5F39AB29042A4F8AE2102D2B8
:10308000521A063A92B20B9BA4F8AA2113B100235C
:10309000A4F8B6310221012026F006FB002202210D
:1030A0008346012013F0B2FD6C494FF4E8722046CC
:1030B00013F03CFD00F107085FFA88F8684B0094B4
:1030C00042460121002015F087F830F002030CD0B1
:1030D0005E4A64495F4841F6517332F031FD404029
:1030E00080F311884FF0030002DF574DA9FB05590B
:1030F00053A3D3E9002328464946FDF73BFF20F0C0
:103100007F4A5948089406940723AAFB000103FB51
:103110000A1123690493554B0793554B0593281ABD
:103120004FF6FE7369EB010103934FF47A720023AB
:10313000FDF720FF3B46CDE901A000964246012164
:10314000002014F0BFFF30F002030CD03F4A454985
:10315000404841F6657332F0F3FC404080F311883B
:103160004FF0030002DFBBF1000F63D194F8A831E8
:1031700043F0010384F8A83111B0BDE8F08F08FBDB
:10318000110140F2E243304889B203FB01F1A1FB97
:1031900000012BA3D3E90023FDF7ECFE3F1A35E72E
:1031A000226C0A99A36CDFF8A0B002FB1133A36470
:1031B00022F026FF814694F89C01C0F3420022F0E1
:1031C00023FF814405FB09F92A4B0E9A09F574295E
:1031D00009F23F29A3FB09394FEA994306FB02F2A2
:1031E00003FB0AF02364A5EB0309A36C22656A08BC
:1031F0000344963A934228BF1346C4E9112300239F
:10320000C4F8A431A0FB0B010DA3D3E90023FDF703
:10321000B1FE0F9B3F1A1848A0FB0330800A06FB43
:1032200000F007A3D3E90023A0FB0B01FDF7A2FEEA
:10323000064608E701220221104613F0E7FC95E755
:103240008D49FD1A0700000000CA9A3B34F50300BF
:1032500010B9030058B603007FC3C901201900202C
:10326000BDF9010008F603008D49FD1A65F901005A
:10327000814A020083DE1B435917B7D100000000CA
:1032800038B5044600251FF0FDFE2046C4E946552A
:1032900084F8245121F020FB07222946C4E94A552D
:1032A000A4F8345184F83651A4F8385104F5A270CA
:1032B00033F0FEFC0222294604F5B47033F0F8FC2A
:1032C0002946182204F5A87033F0F2FC94F88E30E9
:1032D00084F8765106A1D1E9000123F01803C4E96E
:1032E000580184F88E30658638BD00BFAFF300808A
:1032F0003F718900100000002DE9F04F0B68D2F8F3
:1033000000B01E68037F95B0C3F3801905468A4656
:10331000174600F11E01062212A8CDF8309033F0B6
:1033200098FC12A9062210A833F093FC2C7FD5F844
:1033300000C0CDF82CC0E40906F19D0810AB4A4648
:10334000414620461CF056FE002840F0CC819BF8F8
:10335000C2210D9069F341028BF8C22110A9062207
:103360000BF2C91033F075FC9BF8C22164F3000224
:1033700041468BF8C2210BF2C310062233F069FCE0
:1033800007F10409032205F12E0107F1080033F0CB
:1033900060FC07F11804042205F12A01484633F0C5
:1033A00058FC052205F13A01204633F052FC052174
:1033B000204613F091FD797F95F83F2000F03F0003
:1033C00060F305017977C2F30401B977B5F8348069
:1033D000A7F80E80012802F01F021FFA88F140F2C0
:1033E00082811B3202F01F020B2A00F27C810D9BAE
:1033F000002900F07881DAF80020536095F8372032
:1034000095F8363043EA02233B82736D6A8E0E9242
:1034100040F2E24404FB01F8002B00F0E38196F84F
:10342000253040F6C414DB0940F6A66308BF2346E6
:103430000F93002158461EF05FFD95F83F309BF832
:103440009C215B0963F343028BF89C2122F0D8FD99
:1034500004469BF89C01C0F3420022F0D5FD2318DE
:1034600008FB03F3C44A03F5742303F23F23A2FBD2
:1034700003239B0C4FEA58027B62963A95F8313051
:10348000BA6240F2E24202FB03F3BB632C8F42F2CA
:103490001072A3B202FB038341465846013BB3FBC3
:1034A000F8F3ABF8B4311EF013FD398AB34BB44ACC
:1034B000CBF8B8214344881DB3FBF8F39AB282429B
:1034C000ABF8AE2104DDC1F57F41FA310A4492B276
:1034D000ABF8AA21494604220BF5D07033F0B9FBB2
:1034E000736D002B00F0798101230D93EA0700F141
:1034F00059819DF83030AB774FF4807310A9AB83BE
:10350000062205F11F0033F0A4FB9BF89C31FA89D9
:10351000EA84C3F342033A8A2A856C8585F82C3005
:1035200058461CF083FA0423B881E88087F8B63047
:10353000DAF804400B98294617F018FCBB89E380A1
:103540001C2323710D9B2568002B40F004810D9BEB
:10355000237715F0C5F9002840F0E680214628467B
:1035600017F004FC17F00CFC97F85B00B7F840402C
:10357000B7F84250012100F0070022F041FB25443A
:1035800005F56175291881467E4800253123CBF861
:103590000830A1FB000176A3D3E90023CBF8045047
:1035A000CBF80C50FDF7E6FC7B6A0E9AA8EB0308FB
:1035B000DAF80C3040F2E24404FB023420F07F40A1
:1035C0000F9BCBF81000303C2A46022101201C44FE
:1035D00013F01CFB736DA4EB0904A3B11F683846FC
:1035E00019F032FE021D684B0097D2B22846012125
:1035F00014F0F2FD012800F00A8197F85A306FF3B9
:10360000000387F85A30304619F0ECF8821C5E4B04
:103610000096D2B20121002014F0DEFD012800F056
:10362000E38096F82430DB0776D458461CF0FEF988
:10363000DFF85091A8FB09864DA3D3E90023054686
:1036400031464046FDF796FCDAF80830CDF818B060
:10365000A3F1490A4D4B07934D4B05934FF4EB7380
:103660000893DBF81030049320F07F47494800238B
:10367000A7FB000103930723B8EB000003FB07112E
:1036800066EB01014FF47A720023FDF773FC38A357
:10369000D3E90023CDE90170A4FB0901FDF76AFC21
:1036A000073520F07F40EDB2009053462A460121B5
:1036B000002014F007FD30F002030CD0364A3749E1
:1036C000374840F2D71332F03BFA404080F311887C
:1036D0004FF0030002DF01220221104613F096FA98
:1036E00015B0BDE8F08F97F82030EC680B980022F9
:1036F000726162F30003012687F8203029462E719B
:1037000017F034FB20682671214617F02FFB17F0C5
:1037100037FB15B0BDE8F08F002301220093184657
:10372000114614F059FD80E72146284617F01EFB8C
:10373000346D3046256819F055F85FFA80F9B9F113
:10374000010F3CD812232371BB8963810023A4F8A5
:103750000690238102E77B7F43F040037B77484656
:1037600021F09CFD0123F8832377F2E6AFF300807C
:103770008D49FD1A0700000083DE1B437FC3C9018A
:10378000404B4C0000CA9A3B454A0200154A0200D1
:10379000814A02008D49FD1AD8FA030008F6030099
:1037A00058B60300234A24492448FF2332F0C8F9BD
:1037B000404080F311884FF0030002DF99E61D4A74
:1037C0001F491E4840F2531332F0BAF9404080F3CB
:1037D00011884FF0030002DFB4E72B7FC3F34013DF
:1037E0000D9383E60F9424E617F0A0FB86423FF486
:1037F00018AF104A1349114840F2A12332F0A0F942
:10380000404080F311884FF0030002DF09E717F012
:103810008DFB87423FF4F1AE064A0A49074840F261
:10382000A12332F08DF9404080F311884FF003005E
:1038300002DFE2E6D8FA0300F0ED030058B6030019
:1038400054F1030034FB030038B5031FDBB2012B36
:103850000D4616D906282BD00738C3B2012B02D942
:103860000024204638BD80B21CF0E8F80028F7D0CC
:1038700090F93930002BF3DB03692B6004462046B6
:1038800038BD184619F078FD04460028E9D0FF221B
:10389000114619F07FFD0E490BA3D3E90023A0FBCD
:1038A0000101FDF767FB20F07F402860204638BD0E
:1038B00000201AF097FE04460028D2D0FF211AF00B
:1038C000AFFEE8E7AFF300808D49FD1A0700000066
:1038D00000CA9A3B0000000030B585B003AD0095EA
:1038E00002AB144621F088F9FF282ED0021FD2B275
:1038F000012A0ED9062810D0C31FDBB2012B24D811
:10390000DDE9022123680A4413442360002005B046
:1039100030BD2946FFF798FFF2E700201AF062FE5B
:10392000B0B1FF211AF07CFE0D490BA3D3E90023AF
:10393000A0FB0101FDF71EFB20F07F4223680299E6
:103940000B44134400202360E1E76FF00900DEE739
:10395000039AF3E7AFF300808D49FD1A07000000DA
:1039600000CA9A3B0000000038B50446002A43D044
:10397000072A45D118684FEAE07E4FEA4E1C4CEA10
:10398000D06C4101091A6CEB0E0C4FEA4C2C4CEA3E
:10399000D15C490209184EEB0C0C4FEA8C1545EA34
:1039A00091658A01521A65EB0C0C12184EEB0C0E45
:1039B00059688B184EEBE171012B71F1000211DB9C
:1039C0001348181810A3D3E9002341F10001FDF7B3
:1039D00081FAB0FA80F1C1F11E01C9B2204636F079
:1039E000BAFA0FE00B48181807A3D3E9002361F1D6
:1039F0000001FDF76FFAECE7198827F07BFD01E085
:103A00006FF0850038BD00BF3AA3950000000000AC
:103A10009DD14A00632EB5FF2DE9F04F8FB00B907A
:103A20000DF136010DF1370017F01AFA9DF837A0A5
:103A30009DF836B014F088FC0A90DFF8EC90D9F8C5
:103A400000500027DFF8E480A5FB086534A3D3E924
:103A5000002330462946FDF78DFA20F07F44344894
:103A6000A4FB0001072303FB0411301A4FF47A7200
:103A70004FF0000365EB0101FDF77CFA0546D9F82C
:103A8000040027A3D3E90023A0FB0801FDF772FA85
:103A9000089707970B9A0692264B059320F07F40D4
:103AA000049003970295019400970A9B5A460321BC
:103AB000504614F007FB08B102282DD11E4A0023FE
:103AC0001E482DF063FE20B9174BD8680FB0BDE833
:103AD000F08F002300939DF8362003219DF83700D6
:103AE00014F07AFBA8B1022802D16FF07300EDE761
:103AF000134CE42322461349134832F021F81348AB
:103B000032F01EF8E421204632F013F86FF0730013
:103B1000DCE76FF07300D9E76FF08B00D6E700BFEA
:103B20008D49FD1A070000007C5E002000CA9A3B08
:103B30008D49FD1AD5C00200447B0B008C5E00202D
:103B4000500B0400AC0B040058B60300F40B040047
:103B500068B5054614F0F8FB0D4EB16814F0F6FB9D
:103B6000B0FBF5F5054471680A4807A3D3E90023C3
:103B7000A1FB0001FDF7FEF920F07F40854201D84E
:103B8000002068BD0120FCE78D49FD1A07000000F8
:103B90007C5E002000CA9A3B08B502482EF0CCF9A2
:103BA00008BD00BF601F002008B50D2804D00146E5
:103BB0000B4B1B68642B08D90A4B186883685B6938
:103BC000984709482EF0B8F908BD084AD054013387
:103BD000034A1360034B18688368DB699847F3E76F
:103BE0005C1F0020801F0020701F0020F81E002096
:103BF00038B50546002406E0064B1868295D836841
:103C0000DB6998470134284632F0D8FFA042F3D848
:103C100038BD00BF801F002008B564220021034882
:103C200033F046F8024B00221A6008BDF81E00204F
:103C30005C1F0020B0B582B000AF0C460B78023B91
:103C4000042B14D8DFE803F0031661696500384BD4
:103C50001D8804E06368585DFFF7A6FF0135344B0B
:103C60001B88E2689918A942F4D8314A11800837B4
:103C7000BD46B0BD2E4B00221A802E4B18688368BB
:103C80001B694FF480722C49096898470446002844
:103C9000EDD06D4688B06B4613F110022FD00C2189
:103CA0001AB1042901DD2548586112B1082900DD47
:103CB0009C610B2926DD0C243AB1032139710021C6
:103CC0007971B971F9717868186100216FF3000199
:103CD0006FF341016FF382016FF3C501012363F3B9
:103CE000881104F47B7363F352216FF3DE416FF3A9
:103CF000DF710023124806F00BFCAD46B7E76FF00A
:103D00000041CDE76FF01B04D6E74A680A4B1A6002
:103D1000ADE70A790B4B1A60A9E70A4B1B68002B29
:103D2000A5D0084B00221A6007482EF005F99EE73F
:103D30005C640020801F00206002002038B2030075
:103D4000A0AF0300941F0020841F0020B0B582B0F4
:103D500000AF474B186883685B699847B0B3054666
:103D60006C4688B06B4613F1100274D00C211AB166
:103D7000042901DD3F48586112B1082900DD9D6129
:103D80000B296BDD4FF00C0C3AB103213971002186
:103D90007971B971F9717868186100216FF30001C8
:103DA0006FF341016FF382016FF3C501012363F3E8
:103DB00088110CF47B7C6CF352216FF3DE416FF3BE
:103DC000DF7100232C4806F0A3FBA54640F6CD404A
:103DD00000212FF043FE0021254B186807F046FE16
:103DE0000546A8B36C4688B06B4613F1100238D074
:103DF0000C211AB1042901DD2048586112B10829AB
:103E000000DD9D610B292FDD4FF00C0C3AB1032131
:103E1000397100217971B971F971786818610021DF
:103E20006FF300016FF341016FF382016FF3C5017E
:103E3000012363F388110CF47B7C6CF352216FF344
:103E4000DE416FF3DF7100230B4806F061FBA546EE
:103E50000837BD46B0BD6FF0004188E76FF01B0C1E
:103E600092E76FF00041C4E76FF01B0CCEE700BF94
:103E7000801F00204CB20300A0AF030094B20300E7
:103E8000B0B588B000AF374BFB6102233B71002314
:103E90007B71BB71FB717A68BA61194663F30001EB
:103EA00063F3410163F3820163F3C501032262F30B
:103EB0008811082262F3522163F3DE4163F3DF715C
:103EC00007F11802284806F023FB284B186883687E
:103ED000DC6801234FF480722549A047B0B3054642
:103EE0006C4688B06B4613F1100234D00C211AB125
:103EF000042901DD1F48586112B1082900DD9D61C8
:103F00000B292BDD4FF00C0C3AB103213971002144
:103F10007971B971F9717868186100216FF3000146
:103F20006FF341016FF382016FF3C501012363F366
:103F300088110CF47B7C6CF352216FF3DE416FF33C
:103F4000DF710023084806F0E3FAA546FFF764FE98
:103F50002037BD46B0BD6FF00041C8E76FF01B0CC5
:103F6000D2E700BFB0B20300A0AF0300801F002063
:103F7000981F0020C8B2030000487047DCB203005D
:103F800000487047F8B20300B0B58AB002AFB44839
:103F9000B44B186036F0B8FBC0B136F035FD0246C0
:103FA0004B0143EAD0634001801A63EB01039D009B
:103FB00045EA90758000801845EB0105ED0045EA63
:103FC0005075C0F3103040EA45452FE0A64BFB6129
:103FD00002233B7100237B71BB71FB717A68BA616C
:103FE000194663F3000163F3410163F3820163F354
:103FF000C501012262F38811082262F3522163F3A2
:10400000DE4163F3DF7107F11802984806F080FA89
:104010006FF00D04A8E06FF057040FE06FF000415F
:1040200030E06FF01B0439E0002C5CD08D4B186839
:1040300083681B6A002BEED098470446002CF3D00F
:1040400036F0E2FC4A0142EAD06243011B1A62EBFD
:104050000102920042EA93729B001B1842EB01019D
:10406000C90041EA5371C3F3103343EA41435B1B78
:10407000B3F57A7FD8D96D4688B002AB13F1100240
:10408000CCD00C211AB1042901DD7948586112B154
:10409000082900DD9C610B29C3DD0C243AB1032102
:1040A000397100217971B971F9717868186100214D
:1040B0006FF300016FF341016FF382016FF3C501EC
:1040C000012363F3881104F47B7464F352216FF3CA
:1040D000DE416FF3DF710023644806F019FAAD4644
:1040E0006FF0040440E05F4B186883681B68002B86
:1040F0003ED000225F499847034600283AD1594CE8
:104100000121206807F0B2FC20688368DC68012385
:104110004FF480725849A0470346002868D1FFF742
:104120007BFD504B186883685B6A002B00F0C080F1
:10413000524998470446002C40F0BD8050495148F0
:104140002DF068FE504951482DF064FE5049514809
:104150002DF060FE00220023CDE900234FF4A022C1
:1041600000234D4830F090FA20462037BD46B0BDC0
:104170006FF057036C4688B002A911F1100231D0DC
:104180000C201AB1042801DD444D4D6112B10828FC
:1041900000DD8B610B2828DD0C233AB10320387138
:1041A00000207871B871F8717868086100216FF3A8
:1041B00000016FF341016FF382016FF3C50101202C
:1041C00060F3881103F47B7363F352216FF3DE41D4
:1041D0006FF3DF710023254806F09AF9A5466FF0CA
:1041E0000D04C1E76FF00040CBE76FF01B03D4E78D
:1041F0006C4688B002A911F1100253D00C201AB1FC
:10420000042801DD264D4D6112B1082800DD8B61C7
:104210000B284ADD0C233AB1032038710020787155
:10422000B871F8717868086100216FF300016FF3CD
:1042300041016FF382016FF3C501012060F3881122
:1042400003F47B7363F352216FF3DE416FF3DF718D
:104250000023064806F05CF9A5466FF00D0483E7DD
:10426000C4AC0300801F00200CB30300A0AF030008
:1042700024B30300353C0000981F0020A8B40300BD
:1042800039460000701F00204D3D0000601F0020D7
:10429000813E0000841F0020180C00205CB3030046
:1042A00074B303006FF00040A9E76FF01B03B2E79F
:1042B0006FF057043FE76D4688B002AB13F1100270
:1042C00031D00C211AB1042901DD1A48586112B10C
:1042D000082900DD9C610B2928DD0C243AB103215B
:1042E000397100217971B971F9717868186100210B
:1042F0006FF300016FF341016FF382016FF3C501AA
:10430000012363F3881104F47B7464F352216FF387
:10431000DE416FF3DF710023074806F0F9F8AD4680
:104320006FF00D0420E76FF00041CBE76FF01B0446
:10433000D4E700BF8CB30300A0AF030070B5A4B0F6
:1043400004460D461646642200210BA832F0B0FC4C
:1043500004222146A34832F044FC08B9042D55D06C
:1043600009222146A04832F03CFC08B9092D60D052
:10437000072221469D4832F034FC10B9072D00F089
:104380009680022221469A4832F02BFC10B9022D69
:1043900000F0A88006222146964832F022FC10B98F
:1043A000062D00F0A3800A222146934832F019FC22
:1043B00010B90A2D00F0A080092221468F4832F062
:1043C00010FC10B9092D00F2A180092221468C4869
:1043D00032F007FC10B9092D00F0B5800922214602
:1043E000884832F0FEFB10B90D2D00F2BB80092287
:1043F0002146854832F0F5FB10B9092D00F2D68030
:104400008248B0470024204624B070BDFFF7B4FDB9
:104410000446FFF7B5FD03467D4A009222467D49DA
:104420000BA809F0CFFB0BA8B0477B48B04701248D
:10443000E9E70D22002107A832F03AFC03A830F08A
:10444000A4FF9DF80C305BBB9DF812308DF8143042
:104450009DF811308DF815309DF810308DF816301C
:104460009DF80F308DF817309DF80E308DF818300C
:104470009DF80D308DF819300D2307AA062105A8E7
:1044800031F054F807A830F0CBFF07AA63490BA816
:1044900009F098FB0BA8B0475F48B0470124B2E78A
:1044A00006220DF10D0105A832F0D3FBE4E730F050
:1044B00052FF044608B95A48B04730F058FF054645
:1044C00010B95848B0472C4630F05BFF28B9564821
:1044D000B0474E48B047012495E7002CF9D0534827
:1044E000B04790E75148B04701248CE75048B047A7
:1044F0004948B047012486E74C48B04741F69A1036
:1045000000212FF0ABFA012005F09AFB2BF038FFC9
:10451000002101600A2204F1090032F0BCFA0446CD
:104520002BF02EFF03681BB9204630F0F1FE18B1C6
:104530003648B047002466E760B203F01FF93B48F5
:10454000B04701245FE707A803F044F99DF91C2058
:1045500038490BA809F036FB0BA8B0473348B047E1
:10456000012450E72BF00CFF002101600A2204F126
:104570000D0032F090FA04462BF002FF03688BB96D
:104580002CB1012C09D02148B04700243BE700F0B2
:1045900003FE2648B047012435E700F0A7FC234876
:1045A000B04730E71948B04701242CE72BF0E8FE6C
:1045B000002101600A22A01832F06DFA04462BF0A7
:1045C000DFFE03681BB11148B04700241BE7A0B20F
:1045D000014600F06DFE04460028F4D01348B047B1
:1045E00011E700BFA8B30300CCB30300E8B3030096
:1045F00034B4030038B4030054B4030060B40300BF
:104600006CB4030084B4030094B4030028B4030022
:10461000E0C10300B0B30300C4B30300D8B3030088
:10462000F0B3030000B4030010B4030020B403008F
:1046300040B4030078B40300F0B583B000AF354B4D
:104640001B68632B28BF6323334D0022EA5428469E
:1046500032F0B4FA0146314A2846FFF76FFE18B926
:10466000FFF7DAFA012533E02D4836F00FFAF7E7C5
:104670006FF0004140E012B1082900DD9D610B2977
:1046800041DD0C213AB10320387100207871B871F6
:10469000F871786818616FF300046FF341046FF3E9
:1046A00082046FF3C504012363F3881401F47B7360
:1046B00063F352246FF3DE446FF3DF74002321466B
:1046C000184805F025FFB546A42000212FF0C6F9B3
:1046D000E5B1154B18688368DD6801234FF48072DB
:1046E0001249A84705460028EED06E4688B06B46B2
:1046F00013F11002BCD00C21002ABCD00429BADD71
:104700000B485861B7E76FF01B01BBE70C37BD469C
:10471000F0BD00BF5C1F0020F81E0020F13B000030
:10472000180C0020A0AF0300801F0020981F00205D
:10473000C8B203002DE9F043CFB002AF0C4690465B
:104740001E46FBF72FFE0022494BFBF7BFFFFCF78D
:10475000CDF8484B18802046FBF724FE0022444B3E
:10476000FBF7B4FFFCF7C2F8434B18800024434B1F
:104770001C70434D68690A224146043032F069FAE0
:104780006869062231460E3032F063FA6869012208
:1047900007F5A871033032F05CFA3A4B7B620223D2
:1047A0003B717C71BC71FC717B683B62214664F398
:1047B000000164F3410164F3820164F3C501032342
:1047C00063F38811082363F3522164F3DE4164F339
:1047D000DF71234607F120022B4805F099FE2B4A92
:1047E00021462B480CF022FC002855D004466D468B
:1047F00088B002AB13F1100233D00C211AB1042996
:1048000001DD2448586112B1082900DD9C610B29A3
:104810002ADD0C243AB10321397100217971B97173
:10482000F9717868186100216FF300016FF341019D
:104830006FF382016FF3C501012363F3881104F460
:104840007B7363F352216FF3DE416FF3DF7100235B
:104850000D4805F05DFEAD4607F59A77BD46BDE80B
:10486000F0836FF00041C9E76FF01B04D2E700BF8F
:104870000000F43F606400205E6400206E6400204D
:1048800098020020B0B40300B0AF030098210020CC
:10489000B8020020FCBC03008E4BFB634FF0020902
:1048A00087F8049000247C71BC71FC717B68BB6349
:1048B000214664F3000164F3410164F3820164F36F
:1048C000C501032565F388114FF0080868F35221EC
:1048D00064F3DE4164F3DF717F4E234607F1380253
:1048E000304605F015FE7D4B7B6587F804907C71A2
:1048F000BC71FC717B683B65214664F3000164F385
:10490000410164F3820164F3C50165F3881168F322
:10491000522164F3DE4164F3DF71234607F1500254
:10492000304605F0F5FD6E4B1868009423462A4684
:104930006C4933F08FF90446B8B36D4688B00DEB7F
:10494000080313F1100200F0B8800C211AB10429F9
:1049500001DD6548586112B1082900DD9C610B2911
:1049600040F3AE800C243AB10321397100217971F2
:10497000B971F9717868186100216FF300016FF364
:1049800041016FF382016FF3C501012363F38811C5
:1049900004F47B7464F352216FF3DE416FF3DF7133
:1049A00000234D4805F0B4FDAD464A4BFB664FF081
:1049B000020987F8049000247C71BC71FC717B684B
:1049C000BB66214664F3000164F3410164F3820194
:1049D00064F3C5014FF0030868F38811082666F3F5
:1049E000522164F3DE4164F3DF713B4D234607F14E
:1049F0006802284605F08CFD3C4BC7F8843087F8E8
:104A000004907C71BC71FC717B68C7F880302146D2
:104A100064F3000164F3410164F3820164F3C501AE
:104A200068F3881166F3522164F3DE4164F3DF71A9
:104A3000234607F18002284605F06AFD2C49284BE1
:104A4000186811F093FF0446002855D06D4688B0D1
:104A50000DEB060313F1100235D00C211AB1042915
:104A600001DD2448586112B1082900DD9C610B2941
:104A70002CDD0C243AB10321397100217971B9710F
:104A8000F9717868186100216FF300016FF341013B
:104A90006FF382016FF3C501012363F3881104F4FE
:104AA0007B7363F352216FF3DE416FF3DF710023F9
:104AB000094805F02DFDAD46CEE66FF0004145E713
:104AC0006FF01B044FE76FF00041C7E76FF01B0466
:104AD000D0E700BFC4B40300B0AF0300D0B40300FC
:104AE0009821002098020020E4B4030008B50300D8
:104AF000B0020020FCBC0300934BC7F89C304FF081
:104B0000020987F8049000247C71BC71FC717B68F9
:104B1000C7F89830214664F3000164F3410164F35F
:104B2000820164F3C5014FF0030868F38811082679
:104B300066F3522164F3DE4164F3DF71834D234653
:104B400007F19802284605F0E3FC814BC7F8B43022
:104B500087F804907C71BC71FC717B68C7F8B03039
:104B6000214664F3000164F3410164F3820164F3BC
:104B7000C50168F3881166F3522164F3DE4164F3E2
:104B8000DF71234607F1B002284605F0C1FC714BE6
:104B90001B883B81704B1B887B814FF48043FB60FB
:104BA000B9196E4B18680CF085FC044600283CD0FF
:104BB0006D4688B00DEB060313F110022FD00C21C7
:104BC0001AB1042901DD6648586112B1082900DDD7
:104BD0009C610B2926DD0C243AB103213971002197
:104BE0007971B971F9717868186100216FF300016A
:104BF0006FF341016FF382016FF3C501012363F38A
:104C0000881104F47B7464F352216FF3DE416FF377
:104C1000DF7100234D4805F07BFCAD461CE66FF0CC
:104C20000041CDE76FF01B04D6E7474BC7F8CC3007
:104C30004FF0020987F8049000247C71BC71FC716C
:104C40007B68C7F8C830214664F3000164F3410172
:104C500064F3820164F3C5014FF0030868F388111F
:104C6000082666F3522164F3DE4164F3DF71374DA9
:104C7000234607F1C802284605F04AFC394BC7F81D
:104C8000E43087F804907C71BC71FC717B68C7F8D4
:104C9000E030214664F3000164F3410164F38201D2
:104CA00064F3C50168F3881166F3522164F3DE41B1
:104CB00064F3DF71234607F1E002284605F028FC83
:104CC000264B186811F0B0FE044600284CD06D4603
:104CD00088B00DEB060313F110022FD00C211AB18E
:104CE000042901DD1E48586112B1082900DD9C61CC
:104CF0000B2926DD0C243AB1032139710021797189
:104D0000B971F9717868186100216FF300016FF3D0
:104D100041016FF382016FF3C501012363F3881131
:104D200004F47B7363F352216FF3DE416FF3DF71A1
:104D30000023064805F0ECFBAD468DE56FF0004121
:104D4000CDE76FF01B04D6E7C4B40300B0AF030097
:104D500020B50300606400205E64002098210020DC
:104D6000FCBC030044B503005A4BC7F8FC300225D5
:104D70003D7100247C71BC71FC717B68C7F8F83010
:104D8000214664F3000164F3410164F3820164F39A
:104D9000C5014FF0030969F388114FF0080868F363
:104DA000522164F3DE4164F3DF714B4E234607F179
:104DB000F802304605F0ACFB484BC7F814313D71A2
:104DC0007C71BC71FC717B68C7F81031214664F3BB
:104DD000000164F3410164F3820164F3C50169F3E6
:104DE000881168F3522164F3DE4164F3DF712346D6
:104DF00007F58872304605F08BFB009423462A465F
:104E0000374938480CF074FA044600283CD06D4607
:104E100088B00DEB080313F110022FD00C211AB14A
:104E2000042901DD3048586112B1082900DD9C6178
:104E30000B2926DD0C243AB1032139710021797147
:104E4000B971F9717868186100216FF300016FF38F
:104E500041016FF382016FF3C501012363F38811F0
:104E600004F47B7363F352216FF3DE416FF3DF7160
:104E70000023194805F04CFBAD46EDE46FF000410E
:104E8000CDE76FF01B04D6E7124BC7F82C31022395
:104E90003B7100237B71BB71FB717A68C7F82821D5
:104EA000194663F3000163F3410163F3820163F385
:104EB000C501032262F38811082262F3522163F3D1
:104EC000DE4163F3DF7107F59472034805F020FBC0
:104ED000C2E400BFC4B40300B0AF030054B5030084
:104EE000C8B60300CC02002078B503002DE9F043DA
:104EF000A1B000AF9F4B1B78002B5ED19E4BFB6196
:104F000002233B7100237B71BB71FB717A68BA612C
:104F1000194663F3000163F3410163F3820163F314
:104F2000C501032262F38811082262F3522163F360
:104F3000DE4163F3DF7107F11802904805F0E8FAEB
:104F40008F4B186832F0BAFE0446002860D06D46D8
:104F500088B06B4613F1100254D00C211AB1042909
:104F600001DD8848586112B1082900DD9C610B29D8
:104F70004BDD0C243AB10321397100217971B971EB
:104F8000F9717868186100216FF300016FF3410136
:104F90006FF382016FF3C501012363F3881104F4F9
:104FA0007B7363F352216FF3DE416FF3DF710023F4
:104FB000724805F0ADFAAD4620E0734BFB67022264
:104FC0003A7100237B71BB71FB717968B96719462F
:104FD00063F3000163F3410163F3820163F3C501ED
:104FE00062F38811082262F3522163F3DE4163F316
:104FF000DF7107F17802614805F08AFA8437BD460F
:10500000BDE8F0836FF00041A8E76FF01B04B1E743
:105010005E4B7B634FF0020987F8049000247C719B
:10502000BC71FC717B683B63214664F3000164F34F
:10503000410164F3820164F3C5014FF0030868F392
:105040008811082666F3522164F3DE4164F3DF71B0
:105050004A4D234607F13002284605F059FA4C4BD9
:10506000FB6487F804907C71BC71FC717B68BB6445
:10507000214664F3000164F3410164F3820164F3A7
:10508000C50168F3881166F3522164F3DE4164F3CD
:10509000DF71234607F14802284605F039FA3D49F9
:1050A000374B18680CF056F9044600283BD06D4683
:1050B00088B06B4613F110022FD00C211AB10429CD
:1050C00001DD3048586112B1082900DD9C610B29CF
:1050D00026DD0C243AB10321397100217971B971AF
:1050E000F9717868186100216FF300016FF34101D5
:1050F0006FF382016FF3C501012363F3881104F498
:105100007B7464F352216FF3DE416FF3DF71002390
:105110001A4805F0FDF9AD4670E76FF00041CDE7A4
:105120006FF01B04D6E7134B01221A70174B7B66F6
:1051300002233B7100237B71BB71FB717A683A6675
:10514000194663F3000163F3410163F3820163F3E2
:10515000C501032262F38811082262F3522163F32E
:10516000DE4163F3DF7107F16002044805F0D0F916
:1051700044E700BF6E640020C0B50300B0AF030079
:1051800098210020FCBC0300A0B50300C4B40300B8
:10519000E0B503009C21002010B58EB03B4B1B787E
:1051A000002B35D03A4B186832F08DFD002854D1D1
:1051B000374B186832F003FD00285AD1354B07935E
:1051C00002238DF8043000248DF805408DF8064048
:1051D0008DF80740019B0693214664F3000164F3B8
:1051E000410164F3820164F3C501032363F3881171
:1051F000082363F3522164F3DE4164F3DF71234635
:1052000006AA254805F084F9204B1C700EB010BD8D
:10521000224B0D9302228DF8042000238DF80530D7
:105220008DF806308DF8073001990C91194663F31B
:10523000000163F3410163F3820163F3C50162F38B
:105240008811082262F3522163F3DE4163F3DF71B8
:105250000CAA114805F05CF9D8E7114CC523224689
:105260001049114830F06CFCC521204630F061FC3B
:105270009EE70B4CC62322460C490B4830F060FCDD
:10528000C621204630F055FC98E700BF6E64002030
:10529000982100209CB60300B0AF030000B60300C5
:1052A00020B6030034B6030058B6030078B60300F6
:1052B000F0B58BB000AF0C46FBF774F80022444BFE
:1052C000FBF704FA434DFBF711FB28802046FBF760
:1052D00069F800223E4BFBF7F9F93F4CFBF706FB60
:1052E0002080FFF759FF2B883B8123887B814FF477
:1052F0008043FB6007F10801384B18680CF0DAF8BE
:105300000446A0B36E4688B06B4613F1100258D025
:105310000C211AB1042901DD3148586112B1082964
:1053200000DD9C610B294FDD0C253AB10321397159
:1053300000217971B971F9717868186100216FF3F2
:1053400000016FF341016FF382016FF3C501012387
:1053500063F3881105F47B7565F352216FF3DE4129
:105360006FF3DF7100231F4805F0D2F8B5461E4BDE
:105370007B6202233B7100237B71BB71FB717A68F6
:105380003A62194663F3000163F3410163F382015A
:1053900063F3C501032262F38811082262F35221EC
:1053A00063F3DE4163F3DF7107F120020D4805F07E
:1053B000AFF8FFF79BFDB4FA84F040092C37BD46E7
:1053C000F0BD6FF00041A4E76FF01B05ADE700BF33
:1053D0000000F43F606400205E64002098210020FB
:1053E000FCBC0300B0AF0300C4B40300B0B588B088
:1053F00000AF04460D46344BFB6102233B71002392
:105400007B71BB71FB717A68BA61194663F3000165
:1054100063F3410163F3820163F3C501032262F385
:105420008811082262F3522163F3DE4163F3DF71D6
:1054300007F11802254805F06BF82A462146244B4F
:1054400018680CF0DBF810B92037BD46B0BD044633
:105450006D4688B06B4613F110022FD00C211AB1A3
:10546000042901DD1B48586112B1082900DD9C6147
:105470000B2926DD0C243AB1032139710021797101
:10548000B971F9717868186100216FF300016FF349
:1054900041016FF382016FF3C501012363F38811AA
:1054A00004F47B7464F352216FF3DE416FF3DF7118
:1054B0000023064805F02CF8AD46C5E76FF0004123
:1054C000CDE76FF01B04D6E7A8B60300B0AF03002A
:1054D00098210020FCBC03002DE9F84F05460E463C
:1054E0001446D0F808A0D0F804B0D0F8108012F01C
:1054F000FC6F36D104F03003302B43D004F002139C
:10550000022B50D004F00603042B5DD014F4402786
:1055100002D014F4003F65D0B7F5402F74D014F4D6
:10552000801F05D027B114F0010F01D084F440246E
:1055300024F48019DBF800300127B7403B4275D0D6
:1055400014F0010F00F08480D8F800303B43C8F815
:105550000030DAF800304A46314628469847BDE820
:10556000F88F3F4F4FF42F733A463E493E4830F094
:10557000E7FA3E4830F0E4FA4FF42F71384630F045
:10558000D8FAB7E7364F40F2BF233A463849364893
:1055900030F0D6FA374830F0D3FA40F2BF2138461F
:1055A00030F0C7FAAAE72E4F40F2C3233A463249F9
:1055B0002D4830F0C5FA314830F0C2FA40F2C3212C
:1055C000384630F0B6FA9DE7254F40F2C7233A46F9
:1055D0002B49254830F0B4FA40F2C721384630F064
:1055E000A8FA93E7DFF8789040F2CA234A462549A3
:1055F0001D4830F0A5FA244830F0A2FA40F2CA2142
:10560000484630F096FA87E7DFF8549040F2CE2310
:105610004A461E49144830F093FA1D4830F090FA7B
:1056200040F2CE21484630F084FA78E7DFF830B017
:1056300040F2DA235A4617490B4830F081FA1648EF
:1056400030F07EFA40F2DA21584630F072FA77E70D
:10565000D8F8003023EA0703C8F8003079E700BF24
:10566000D8B603000CB7030058B603006CB70300AC
:1056700090B70300CCB703000CB8030044B8030094
:1056800098B80300CCB8030014B9030050B9030064
:1056900094B90300C0B9030000BA030010B582B08A
:1056A000174B9B68DB691BB10022164914489847C9
:1056B000134B5B681B6813F0040F0FD0104804698C
:1056C00083685B6801A9984718B92268019B534019
:1056D00001930D482CF012F802B010BD0B4C40F2B3
:1056E000CC4322460A490B4830F02AFA0A4830F0E7
:1056F00027FA40F2CC41204630F01BFADEE700BF2B
:1057000070AC0300B8210020A0210020D8B603000F
:10571000C0B9030058B6030000BA030030B583B027
:105720007CE05F4C5A2322465E495F4830F008FA1D
:105730005A21204630F0FDF97AE05C4C40F2CC432F
:1057400022465B49584830F0FBF95A4830F0F8F9E6
:1057500040F2CC41204630F0ECF98DE0534C40F261
:10576000CC4322465249504830F0EAF9514830F0D3
:10577000E7F940F2CC41204630F0DBF90CE01C4662
:105780004FF4A47000212EF069F9BCB14A4B5B685C
:105790001B6813F0040FE1D04748046983685B6815
:1057A00001A99847034618B92168019A4A40019215
:1057B000002BE4D1019BC3F38003E0E73F4A136869
:1057C0000133136035F020F94A0142EAD062430107
:1057D0001B1A62EB0102920042EA93729B001B18B3
:1057E00042EB0102D20042EA5372C3F3103343EAA0
:1057F0004243D20B5B1B62F10002B3F57A7F72F178
:1058000000034BDA00202E4B1B6898472A4B9B68FD
:10581000DB691BB101222B49274898474FF0FF3223
:105820004FF0FF3328482BF0B1FF00287FF479AF09
:1058300035F0EAF802464B0143EAD0634001801A92
:1058400063EB01039D0045EA90758000801845EBED
:105850000105ED0045EA5075C0F3103040EA4545BA
:1058600040F6CD4000212EF0F9F8134B5B681B6821
:1058700013F0040F3FF461AF0F48046983685B685D
:1058800001A99847034618B92168019A4A40019234
:1058900013B9019BC3F380031C4676E70120B2E7EE
:1058A00014BA030028BA030058B60300D8B60300A0
:1058B000C0B9030000BA030070AC0300C42100208B
:1058C000C8210020B8210020A0210020F0B589B017
:1058D00000AF944B1860944834F016FF002854D061
:1058E000924A02219048FFF7F7FD0146002800F098
:1058F00081808D4B1D6803233B716C468AB06B46DB
:1059000013F1100266D015201AB1042801DD884E6B
:105910005E6112B1082800DD99610321397012B16E
:105920000C2800DDDD611AB1102801DD02211962A9
:1059300022B103F124010025002D4ED0142856DD9C
:10594000152542B10521397100217971B971012103
:10595000F9717868186100216FF300016FF341015C
:105960006FF382016FF3C501012363F38811C5F35F
:10597000090363F352216FF3DE416FF3DF710023FC
:105980006C4804F0C5FDA54621E06B4BFB6102238A
:105990003B7100237B71BB71FB717A68BA61194658
:1059A00063F3000163F3410163F3820163F3C50113
:1059B000012262F38811082262F3522163F3DE416F
:1059C00063F3DF7107F118025A4804F0A1FD243790
:1059D000BD46F0BD6FF0004096E707F1200606EBEC
:1059E000050C1CF820CC01F801CB0135A4E76FF0C1
:1059F0001B05A6E701220021504834F03FFF504824
:105A000034F0D0FE4F4B504A5A6004229A60464B05
:105A10009B68DB691BB101224A4943489847424BC6
:105A20009C685A681D69136813F0040F55D02B68E1
:105A300013F0040F62D14FF0B862A5693A4C02F03E
:105A4000C06302F0A07202212046A847206802230A
:105A50003B716C468AB06B4613F1100251D0112590
:105A60001AB1042D01DD394959610221397012B191
:105A7000082D00DD98611AB10C2D01DD0221D961DC
:105A800022B103F12001002000283DD0102D45DD7A
:105A9000112542B10421397100217971B9710121B7
:105AA000F9717868186100216FF300016FF341010B
:105AB0006FF382016FF3C501032363F38811C5F30C
:105AC000090565F352216FF3DE416FF3DF710023A7
:105AD000184804F01DFDA54679E71D4E4FF41F73CD
