:1010000040850020E9A00000E59B0000BDA0000095
:10101000BDA00000BDA00000BDA0000000000000B9
:10102000000000000000000000000000C19C000063
:10103000BDA00000000000006D9C0000BDA00000ED
:10104000759D00006D100200759D0000759D0000EB
:10105000759D0000759D0000759D0000759D000048
:10106000759D0000759D0000759D0000759D000038
:10107000759D0000759D0000759D0000759D000028
:10108000759D0000759D0000759D0000759D000018
:10109000759D0000759D0000759D0000759D000008
:1010A000759D0000759D0000759D0000759D0000F8
:1010B000759D0000759D0000759D0000759D0000E8
:1010C000759D0000759D0000759D0000759D0000D8
:1010D000759D0000759D0000759D0000759D0000C8
:1010E000759D0000759D0000759D0000759D0000B8
:1010F000759D0000759D0000759D0000759D0000A8
:1011000081F0004102E000BF83F0004330B54FEAB8
:1011100041044FEA430594EA050F08BF90EA020F25
:101120001FBF54EA000C55EA020C7FEA645C7FEAB8
:10113000655C00F0E2804FEA5454D4EB5555B8BFDB
:101140006D420CDD2C4480EA020281EA030382EA4C
:10115000000083EA010180EA020281EA0303362DDE
:1011600088BF30BD11F0004F4FEA01314FF4801CB1
:101170004CEA113102D0404261EB410113F0004FC3
:101180004FEA03334CEA133302D0524263EB43037A
:1011900094EA050F00F0A780A4F10104D5F1200E18
:1011A0000DDB02FA0EFC22FA05F2801841F1000173
:1011B00003FA0EF2801843FA05F359410EE0A5F147
:1011C00020050EF1200E012A03FA0EFC28BF4CF078
:1011D000020C43FA05F3C01851EBE37101F000452E
:1011E00007D54FF0000EDCF1000C7EEB00006EEB3B
:1011F0000101B1F5801F1BD3B1F5001F0CD34908C5
:101200005FEA30004FEA3C0C04F101044FEA44521B
:1012100012F5800F80F09A80BCF1004F08BF5FEAA2
:10122000500C50F1000041EB045141EA050130BD82
:101230005FEA4C0C404141EB0101013C28BFB1F594
:10124000801FE9D291F0000F04BF01460020B1FADF
:1012500081F308BF2033A3F10B03B3F120020CDAB2
:101260000C3208DD02F1140CC2F10C0201FA0CF090
:1012700021FA02F10CE002F11402D8BFC2F1200CF5
:1012800001FA02F120FA0CFCDCBF41EA0C019040AB
:10129000E41AA2BF01EB0451294330BD6FEA0404F4
:1012A0001F3C1CDA0C340EDC04F11404C4F12002DF
:1012B00020FA04F001FA02F340EA030021FA04F3F1
:1012C00045EA030130BDC4F10C04C4F1200220FA48
:1012D00002F001FA04F340EA0300294630BD21FA86
:1012E00004F0294630BD94F0000F83F4801306BF4C
:1012F00081F480110134013D4EE77FEA645C18BF40
:101300007FEA655C29D094EA050F08BF90EA020FD6
:1013100005D054EA000C04BF1946104630BD91EACE
:10132000030F1EBF0021002030BD5FEA545C05D1D1
:101330004000494128BF41F0004130BD14F5800410
:101340003CBF01F5801130BD01F0004545F0FE4184
:1013500041F470014FF0000030BD7FEA645C1ABFB9
:10136000194610467FEA655C1CBF0B46024650EAF0
:10137000013406BF52EA033591EA030F41F400211C
:1013800030BD00BF90F0000F04BF0021704730B5A2
:101390004FF4806404F132044FF000054FF0000177
:1013A00050E700BF90F0000F04BF0021704730B538
:1013B0004FF4806404F1320410F0004548BF40420D
:1013C0004FF000013EE700BF42004FEAE2014FEA62
:1013D00031014FEA02701FBF12F07F4393F07F4F3D
:1013E00081F06051704732F07F4208BF704793F040
:1013F0007F4F04BF41F40021704730B54FF4607453
:1014000001F0004521F000411CE700BF50EA010255
:1014100008BF704730B54FF000050AE050EA0102FE
:1014200008BF704730B511F0004502D5404261EB6E
:1014300041014FF4806404F132045FEA915C3FF4AF
:10144000D8AE4FF003025FEADC0C18BF03325FEA4C
:10145000DC0C18BF033202EBDC02C2F1200300FAFD
:1014600003FC20FA02F001FA03FE40EA0E0021FA22
:1014700002F11444BDE600BF70B54FF0FF0C4CF410
:10148000E06C1CEA11541DBF1CEA135594EA0C0FC2
:1014900095EA0C0F00F0DEF82C4481EA030621EAFD
:1014A0004C5123EA4C5350EA013518BF52EA033538
:1014B00041F4801143F4801338D0A0FB02CE4FF0EA
:1014C0000005E1FB02E506F00042E0FB03E54FF01A
:1014D0000006E1FB03569CF0000F18BF4EF0010E12
:1014E000A4F1FF04B6F5007F64F5407404D25FEA0E
:1014F0004E0E6D4146EB060642EAC62141EA5551C1
:101500004FEAC52040EA5E504FEACE2EB4F1FD0C02
:1015100088BFBCF5E06F1ED8BEF1004F08BF5FEA80
:10152000500E50F1000041EB045170BD06F0004632
:1015300046EA010140EA020081EA0301B4EB5C04DF
:10154000C2BFD4EB0C0541EA045170BD41F48011D7
:101550004FF0000E013C00F3AB8014F1360FDEBFFC
:10156000002001F0004170BDC4F10004203C35DAD8
:101570000C341BDC04F11404C4F1200500FA05F35B
:1015800020FA04F001FA05F240EA020001F00042FC
:1015900021F0004110EBD37021FA04F642EB060172
:1015A0005EEA430E08BF20EAD37070BDC4F10C049C
:1015B000C4F1200500FA04F320FA05F001FA04F260
:1015C00040EA020001F0004110EBD37041F100014C
:1015D0005EEA430E08BF20EAD37070BDC4F1200557
:1015E00000FA05F24EEA020E20FA04F301FA05F2BF
:1015F00043EA020321FA04F001F0004121FA04F267
:1016000020EA020000EBD3705EEA430E08BF20EA36
:10161000D37070BD94F0000F0FD101F00046400070
:1016200041EB010111F4801F08BF013CF7D041EAF2
:10163000060195F0000F18BF704703F000465200F6
:1016400043EB030313F4801F08BF013DF7D043EAC7
:101650000603704794EA0C0F0CEA135518BF95EA7D
:101660000C0F0CD050EA410618BF52EA4306D1D104
:1016700081EA030101F000414FF0000070BD50EA23
:10168000410606BF1046194652EA430619D094EAAD
:101690000C0F02D150EA013613D195EA0C0F05D197
:1016A00052EA03361CBF104619460AD181EA0301EB
:1016B00001F0004141F0FE4141F470014FF00000A3
:1016C00070BD41F0FE4141F4780170BD70B54FF03E
:1016D000FF0C4CF4E06C1CEA11541DBF1CEA1355BE
:1016E00094EA0C0F95EA0C0F00F0A7F8A4EB0504A0
:1016F00081EA030E52EA03354FEA013100F0888097
:101700004FEA03334FF0805545EA131343EA12635F
:101710004FEA022245EA111545EA10654FEA002614
:101720000EF000419D4208BF964244F1FD0404F5CD
:10173000407402D25B084FEA3202B61A65EB030529
:101740005B084FEA32024FF480104FF4002CB6EBE6
:10175000020E75EB030E22BFB61A754640EA0C0066
:101760005B084FEA3202B6EB020E75EB030E22BFA6
:10177000B61A754640EA5C005B084FEA3202B6EBE7
:10178000020E75EB030E22BFB61A754640EA9C00A6
:101790005B084FEA3202B6EB020E75EB030E22BF76
:1017A000B61A754640EADC0055EA060E18D04FEA34
:1017B000051545EA16754FEA06164FEAC30343EAD4
:1017C00052734FEAC2025FEA1C1CC0D111F4801FA1
:1017D0000BD141EA00014FF000004FF0004CB6E79A
:1017E00011F4801F04BF01430020B4F1FD0C88BF39
:1017F000BCF5E06F3FF6AFAEB5EB030C04BFB6EB44
:10180000020C5FEA500C50F1000041EB045170BD36
:101810000EF0004E4EEA113114EB5C04C2BFD4EB63
:101820000C0541EA045170BD41F480114FF0000EE7
:10183000013C90E645EA060E8DE60CEA135594EA63
:101840000C0F08BF95EA0C0F3FF43BAF94EA0C0F66
:101850000AD150EA01347FF434AF95EA0C0F7FF4DB
:1018600025AF104619462CE795EA0C0F06D152EA2F
:1018700003353FF4FDAE1046194622E750EA410613
:1018800018BF52EA43067FF4C5AE50EA41047FF424
:101890000DAF52EA43057FF4EBAE12E74FEA410287
:1018A00012F5001215D211D56FF47873B3EB6252B2
:1018B00012D94FEAC12343F0004343EA505311F0D9
:1018C000004F23FA02F018BF404270474FF000006B
:1018D000704750EA013005D111F0004008BF6FF0A9
:1018E000004070474FF00000704700BF4A0011D21F
:1018F00012F5001211D20DD56FF47873B3EB62526A
:101900000ED44FEAC12343F0004343EA505323FA75
:1019100002F070474FF00000704750EA013002D1EA
:101920004FF0FF3070474FF00000704780F00040EC
:1019300002E000BF81F0004142001FBF5FEA4103A7
:1019400092EA030F7FEA226C7FEA236C6AD04FEAA7
:101950001262D2EB1363C1BFD218414048404140EC
:10196000B8BF5B42192B88BF704710F0004F40F49E
:10197000000020F07F4018BF404211F0004F41F4BA
:10198000000121F07F4118BF494292EA030F3FD086
:10199000A2F1010241FA03FC10EB0C00C3F1200399
:1019A00001FA03F100F0004302D5494260EB400028
:1019B000B0F5000F13D3B0F1807F06D340084FEA93
:1019C000310102F10102FE2A51D2B1F1004F40EB88
:1019D000C25008BF20F0010040EA030070474900F0
:1019E00040EB0000013A28BFB0F5000FEDD2B0FA8D
:1019F00080FCACF1080CB2EB0C0200FA0CF0AABFB0
:101A000000EBC25052421843BCBFD040184370474D
:101A100092F0000F81F4000106BF80F40000013253
:101A2000013BB5E74FEA41037FEA226C18BF7FEA2A
:101A3000236C21D092EA030F04D092F0000F08BF6C
:101A40000846704790EA010F1CBF0020704712F053
:101A50007F4F04D1400028BF40F00040704712F192
:101A600000723CBF00F50000704700F0004343F0F7
:101A7000FE4040F4000070477FEA226216BF08462D
:101A80007FEA23630146420206BF5FEA412390EAF0
:101A9000010F40F4800070474FF0000304E000BFE6
:101AA00010F0004348BF40425FEA000C08BF704797
:101AB00043F0964301464FF000001CE050EA01025B
:101AC00008BF70474FF000030AE000BF50EA010270
:101AD00008BF704711F0004302D5404261EB41015D
:101AE0005FEA010C02BF84460146002043F0B64382
:101AF00008BFA3F18053A3F50003BCFA8CF2083AA7
:101B0000A3EBC25310DB01FA02FC634400FA02FCAF
:101B1000C2F12002BCF1004F20FA02F243EB0200B6
:101B200008BF20F00100704702F1200201FA02FC18
:101B3000C2F1200250EA4C0021FA02F243EB02000B
:101B400008BF20EADC7070474FF0FF0C1CEAD0524F
:101B50001EBF1CEAD15392EA0C0F93EA0C0F6FD010
:101B60001A4480EA010C400218BF5FEA41211ED0EE
:101B70004FF0006343EA501043EA5111A0FB0131DA
:101B80000CF00040B1F5000F3EBF490041EAD371AF
:101B90005B0040EA010062F17F02FD2A1DD8B3F12B
:101BA000004F40EBC25008BF20F00100704790F09A
:101BB000000F0CF0004C08BF49024CEA502040EAEC
:101BC00051207F3AC2BFD2F1FF0340EAC2507047B2
:101BD00040F400004FF00003013A5DDC12F1190FF0
:101BE000DCBF00F000407047C2F10002410021FA62
:101BF00002F1C2F1200200FA02FC5FEA310040F17A
:101C0000000053EA4C0308BF20EADC70704792F0F2
:101C1000000F00F0004C02BF400010F4000F013A2A
:101C2000F9D040EA0C0093F0000F01F0004C02BF25
:101C3000490011F4000F013BF9D041EA0C018FE794
:101C40000CEAD15392EA0C0F18BF93EA0C0F0AD09A
:101C500030F0004C18BF31F0004CD8D180EA0100C0
:101C600000F00040704790F0000F17BF90F0004F59
:101C7000084691F0000F91F0004F14D092EA0C0F3B
:101C800001D142020FD193EA0C0F03D14B0218BFCE
:101C9000084608D180EA010000F0004040F0FE4014
:101CA00040F40000704740F0FE4040F440007047B0
:101CB0004FF0FF0C1CEAD0521EBF1CEAD15392EA2F
:101CC0000C0F93EA0C0F69D0A2EB030280EA010C1F
:101CD00049024FEA402037D04FF0805343EA1111B8
:101CE00043EA10130CF000408B4238BF5B0042F116
:101CF0007D024FF4000C8B4224BF5B1A40EA0C00BB
:101D0000B3EB510F24BFA3EB510340EA5C00B3EBEC
:101D1000910F24BFA3EB910340EA9C00B3EBD10FDA
:101D200024BFA3EBD10340EADC001B0118BF5FEA2C
:101D30001C1CE0D1FD2A3FF650AF8B4240EBC25055
:101D400008BF20F0010070470CF0004C4CEA502016
:101D50007F32C2BFD2F1FF0340EAC250704740F465
:101D600000004FF00003013A37E792F0000F00F057
:101D7000004C02BF400010F4000F013AF9D040EAD5
:101D80000C0093F0000F01F0004C02BF490011F469
:101D9000000F013BF9D041EA0C0195E70CEAD15361
:101DA00092EA0C0F08D142027FF47DAF93EA0C0F48
:101DB0007FF470AF084676E793EA0C0F04D14B022C
:101DC0003FF44CAF08466EE730F0004C18BF31F0DE
:101DD000004CCAD130F000427FF45CAF31F00043D8
:101DE0007FF43CAF5FE700BF4FF0FF3C06E000BF71
:101DF0004FF0010C02E000BF4FF0010C4DF804CD94
:101E00004FEA40024FEA41037FEA226C18BF7FEAA3
:101E1000236C11D001B052EA530C18BF90EA010FA5
:101E200058BFB2EB030088BFC81738BF6FEAE17034
:101E300018BF40F0010070477FEA226C02D15FEAD0
:101E4000402C05D17FEA236CE4D15FEA412CE1D03C
:101E50005DF8040B704700BF844608466146FFE703
:101E60000FB5FFF7C9FF002848BF10F1000F0FBDE5
:101E70004DF808EDFFF7F4FF0CBF012000205DF8DE
:101E800008FB00BF4DF808EDFFF7EAFF34BF012063
:101E900000205DF808FB00BF4DF808EDFFF7E0FFFC
:101EA00094BF012000205DF808FB00BF4DF808ED4D
:101EB000FFF7D2FF94BF012000205DF808FB00BFB0
:101EC0004DF808EDFFF7C8FF34BF012000205DF892
:101ED00008FB00BF7BB972B90029BEBF00204FF0DC
:101EE000004106E008BF00281CBF6FF000414FF022
:101EF000FF3000F077B8ADF1080C6DE904CE002991
:101F000009DB002B1ADB00F082F8DDF804E0DDE9E4
:101F1000022304B07047404261EB4101002B1BDB00
:101F200000F075F8DDF804E0DDE9022304B040427A
:101F300061EB4101524263EB43037047524263EB52
:101F4000430300F064F8DDF804E0DDE9022304B0A7
:101F5000404261EB41017047524263EB430300F0A2
:101F600056F8DDF804E0DDE9022304B0524263EBE9
:101F70004303704753B94AB9002908BF00281CBF62
:101F80004FF0FF314FF0FF3000F02CB8ADF1080CEE
:101F90006DE904CE00F03BF8DDF804E0DDE9022352
:101FA00004B07047D0B5FFF70FFA0C4B002206467D
:101FB0000F46FFF761FAFFF799FC0446FFF7E2F9D5
:101FC000074B0022FFF758FA02460B4630463946C7
:101FD000FFF79AF8FFF78AFC2146D0BD0000F03DDC
:101FE0000000F041704700BF10B500210446FFF724
:101FF00049FF20B92046BDE81040FFF7D3BF04F1E8
:102000000040FFF7CFFF404261EB410110BD2DE9D9
:10201000F04F07468C460846099E15463C46194631
:10202000002B40F0C6808242B2FA82F746D94FB107
:10203000C7F1200E24FA0EFE00FA07F3BD404EEA67
:10204000030CBC404FEA15481FFA85FEBCFBF8F9AB
:10205000220C08FB19C309FB0EFA42EA03439A4516
:1020600028D9EB1809F1FF3004D29A4502D9A9F119
:1020700002002B44A3EB0A03A4B2B3FBF8F208FB63
:10208000123302FB0EFE44EA0344A64514D92C1970
:1020900002F1FF3303D2A64501D9931E2C44A4EBD1
:1020A0000E0443EA00401EB1FC400023346073601C
:1020B000BDE8F08F4846DDE71346F0E702B9FFDEE2
:1020C00087BB831A01214FEA154EAAB2B3FBFEFC6F
:1020D000200C0EFB1C330CFB02F840EA034398452E
:1020E00063D9EB180CF1FF3004D2984502D9ACF15A
:1020F00002002B44A3EB0803A4B2B3FBFEFC0EFBCF
:102100001C330CFB02F244EA0344A2424FD92C19BF
:102110000CF1FF3304D2A24202D9ACF102032C44E9
:10212000A41ABEE7C7F1200C20FA0CF800FA07F356
:1021300024FA0CFCBD404CEA03024FEA154EABB248
:10214000B8FBFEFC110C0EFB1C800CFB03F941EAF2
:102150000040814504FA07F423D928180CF1FF3117
:1021600004D2814502D9ACF102012844A0EB090058
:1021700092B2B0FBFEFC0EFB1C000CFB03F842EA23
:10218000004398450FD9EB180CF1FF3204D2984563
:1021900002D9ACF102022B44A3EB080342EA01414D
:1021A00091E76146E2E76246F6E76046A2E76346EA
:1021B000B6E7834205D90EB1C6E900700021084692
:1021C00076E7B3FA83F181B9834201D3BA420AD8E0
:1021D000BC1A60EB030301209C46002E68D0C6E9C0
:1021E000004C002164E70846F7E7C1F1200C8B4062
:1021F00022FA0CF41C4302FA01F500FA01F327FA63
:102200000CF220FA0CFB4FEA14491343BBFBF9F81C
:102210001FFA84FE09FB18BB1A0C08FB0EFA42EAEF
:102220000B42924507FA01F73ED9A21808F1FF3098
:1022300004D2924502D9A8F102002244A2EB0A027C
:102240009BB2B2FBF9F809FB182208FB0EFE43EA29
:10225000024296452AD9A21808F1FF3304D29645C6
:1022600002D9A8F10203224443EA0040A0FB0593EF
:10227000A2EB0E029A42CE46984602D306D14F45B3
:1022800004D2B9EB050E63EB0408013886B1B7EB55
:102290000E0362EB080707FA0CFCCB404CEA030381
:1022A000CF40C6E900379CE74046C7E74346DBE737
:1022B0003146FDE6000000002DE9F047074686B0F4
:1022C0000E469246384D284629F010FC002862D070
:1022D0000446D5F808803921D8F80C3028469847AC
:1022E000002858D10321D8F810306A46284698476C
:1022F0000198FFF757F82AA3D3E90023FFF7E6F97F
:10230000804600988946FFF74DF802460B46404646
:102310004946FEF7FBFE254B0022FFF7ADF8FFF71D
:10232000BDFA38800398FFF73DF81DA3D3E90023D9
:10233000FFF7CCF9804602988946FFF733F802464A
:102340000B4640464946FEF7E1FE184B0022FFF7D8
:1023500093F8FFF7A3FA30800598FFF723F810A34E
:10236000D3E90023FFF7B2F9064604980F46FFF7BA
:1023700019F802460B4630463946FEF7C7FE0B4BAE
:102380000022FFF779F8FFF789FAAAF80000204643
:1023900006B0BDE8F0870024204606B0BDE8F0870F
:1023A0000000000080842E41200F03000000A040A8
:1023B00001A1D1E9000170473F71890010000000C0
:1023C0002DE9F041D0E90B35866A5C193034A6421C
:1023D0008846174618D81C4DA3FB050118A3D3E95E
:1023E0000023FFF7C7FDA41B20F07F40C8F80000C2
:1023F00013A3D3E90023A4FB0501FFF7BBFD20F0E5
:102400007F403860BDE8F0810F4C0DA3D3E9002375
:10241000A6FB0401FFF7AEFD05F1300120F07F407F
:10242000C8F8000006A3D3E90023A1FB0401FFF7CD
:10243000A1FD20F07F403860BDE8F081AFF300805F
:102440008D49FD1A0700000000CA9A3B00000000F9
:102450002DE9F0471E468AB04FF6FF739E429DF865
:1024600048A0139C88461CD023780133DBB28146F8
:102470001746237073B3504D504B85F80AA004F1F2
:102480001C010022E96001201146C5E900972E8158
:102490009D6010F069FB60B9636D13B1204616F0C2
:1024A0003DFE94F8240010F0010521D00AB0BDE8EB
:1024B000F087434A4349444840F6DE0305F020FBD9
:1024C000404080F311884FF0030002DF636D002B62
:1024D000E4D1E6E73A4A3D493B4840F6D10305F0EE
:1024E0000FFB404080F311884FF0030002DFC2E78A
:1024F000042109A81FF0B2F8099B35490095A1FBFA
:102500000321344A0694CDE90355CDE90155284607
:102510005D1A01EB5501A21A2F4DD208A5FB0252FC
:10252000090A520840F2471505FB113302322B49C4
:1025300005910133D2B20121099311F0B1FD30F0C0
:1025400002030CD01E4A26491F4840F2737305F05F
:10255000D7FA404080F311884FF0030002DFB4F84F
:102560009430D4F8985001363344A4F89430002DB8
:102570009CD0D4F888301B489122A3FB000102FBB9
:1025800003110BA3D3E90023FFF7F4FC20F07F40F5
:1025900000FB0688454586BFA5EB0805C4F89850A2
:1025A000C4F898000AB0BDE8F08700BFAFF3008020
:1025B0008D49FD1A07000000843600200408002021
:1025C000382D0300B02C030050130300682E0300C5
:1025D00021F1D4901C35002019866118CD7A0100B4
:1025E0006C2E0300002AE7842DE9F04F97B00A9380
:1025F000002900F00D810128054600F21C81DFF85A
:10260000D8824FF0A80909FB008900EB400499F833
:102610009C30C4EBC4041746DE074FEAC4020B9299
:1026200008EBC40400F1668194F8293004EB8303BD
:102630002046D3F82CA094F83D3004EB8303514698
:10264000D3F840B05A4615F075F90646002840F018
:10265000DB809AF8003013F00E0F00F0E38003F0F7
:102660000F03072B00F0D98012F06CF8002840F01F
:102670008C82A82303FB05831865A3F89600C3F892
:1026800098004FF0A80909FB0589002794F8253028
:10269000A9F8947094F82420C3F38203C2F3420291
:1026A00001210DF145000A938DF8452010F090FBB3
:1026B000002800F001810A9B02465946504615F059
:1026C000EFFADDF82CC08549B9F888200A92312349
:1026D00008F80C70A0FB0101C4E90577C9E9017392
:1026E000C9F80C707AA3D3E90023FFF743FCC9F8BB
:1026F000100011F0A5FD0A9B834643B99AF80070BB
:1027000007F00F07A7F10107B7FA87F77F0994F8D9
:10271000240067F3000010F0010384F824000C93F8
:1027200040F092804FF0A80909FB0589A36DD9F804
:1027300010A04BB11B680D9393F8623003F00303B4
:10274000012B0F9300F0AE82676D002F40F0718275
:10275000CDE90D7714AB0B930B9A08922BB2604A1C
:10276000DDF828E05F48CDF810A005EB450C03EB41
:1027700043030AF2471102EB830309930694AEFB6D
:10278000000342F82C10912101FB0E31564B0793A8
:10279000564B05930223149305EB030A4FF6FF7380
:1027A0004FF0000903934AA3D3E90023CDF8089022
:1027B000FFF7E0FB5FFA8AFA019003215B4652467D
:1027C000CDF80090484611F0A3FB0B9914F0EEF9F8
:1027D000002871D10E9B73B197F85A3043F0010372
:1027E00087F85A300C9B33B10D9A92F8623043F05F
:1027F000020382F86230A82303FB058595F89C301C
:1028000043F0010385F89C30304617B0BDE8F08FE7
:1028100017B0BDE8F04F14F053BF9AF802305906D4
:102820007FF522AF236A002B00F0A0800C263046F3
:1028300017B0BDE8F08F11F085FF0028F6D1002613
:10284000304617B0BDE8F08FA82303FB058306943C
:102850001B690493019314AB00200893DFF8889060
:10286000224B0593AA1C0321CDE902000090CDF86C
:102870001C90D2B25B460227149711F09FFB14A95B
:1028800014F094F9C0B91A4A059214A94AF2D83240
:10289000089100920321CDE90300CDE90100CDF8B4
:1028A0001C905B4606940122149711F087FB14A933
:1028B00014F07CF900289ED0A82000FB05852B6A27
:1028C000002BB3D0204614F0B7FEAFE7AFF3008083
:1028D0008D49FD1A070000001C35002000CA9A3BF4
:1028E0006C360020002AE784D55F010051240000E7
:1028F0009D74010011F026FF0028A0D099F89C30AB
:10290000D80793D594F83D3004EB830320461A6C26
:1029100094F8293004EB8303D96A15F00BF80646C6
:1029200000287FF471AFD9F85040002C3FF47EAFFF
:10293000237903F0FF02A3B9D9480A9BA9F896307E
:10294000A7FB000140F61813A9F8942003FB071118
:10295000D1A3D3E90023FFF70DFB20F07F40C9F896
:1029600098002379002B3FF46AAF5FE714F064F816
:102970000C90002800F02B8114F06AF80D900028CC
:1029800000F0228118F0C4FE8146002800F0198171
:102990004FF6FF73D0F88800A9F8283009F11C031E
:1029A0000E93002800F0718109F17C0209F1780191
:1029B00010F058F899F88E2022F00702002389F8C9
:1029C0008E2099F87620A9F88C3063F3C302C9F8F9
:1029D00088309AF8003089F8762003F00F03072B2F
:1029E00000F01681B9F8763023F4EE6323F0070384
:1029F00043F4887343F00103A9F87630B9F8D23074
:102A000099F8F31099F8F42023F4FF7323F00103ED
:102A100043F00403A9F8D23099F8393003F03F03AA
:102A200063F07F0389F8393099F83C3023F00703CD
:102A300089F83C3099F8C231002060F3000389F82E
:102A4000C2314FF00003A9F82E307F2389F8D1302E
:102A50000E2389F8D63060F3000160F300024FF4D2
:102A6000C023C9E9120089F8F31089F8F420C9F8E5
:102A7000300089F83B00C9F85000A9F8B601A9F860
:102A8000AC01C9F8B0310622FF238DF848000DF1E2
:102A9000490109F2C3108DF849308DF84A308DF89C
:102AA0004B308DF84C308DF84D308DF84E3007F0AE
:102AB000DFFD99F8C221002363F3410289F8C221A6
:102AC0000DF1510106228DF8503009F2C910FF2393
:102AD0008DF851308DF852308DF853308DF85430D8
:102AE0008DF855308DF8563007F0C2FD484601F09C
:102AF000C7FA4FF0000389F878310C9BC9F87C3194
:102B000019F0EAF899F8BC3160F3020389F8BC3196
:102B100019F0E8F899F8BC3160F3C50389F8BC31C5
:102B200099F8A831002262F3410389F8A8319AF894
:102B3000003003F00F03072B0ABF94F82510012182
:102B40004909484619F0DEFD09F582701AF0F2FDD8
:102B5000A82303FB05830C9AC3F880200D9AC3F8C1
:102B6000842009F11C0323620023C9E90533C9F855
:102B70001C9089F800301FF06DF800283FF474AD08
:102B8000204614F059FD03263EE613F055FF81461A
:102B9000F8B113F05DFF002800F09680C0F80090B7
:102BA0004FF0A80909FB058900230371C9F85000FB
:102BB00094F82420D20717D5A9F89630C9F8983090
:102BC0005FE50D9813F04AFF0C9813F03BFF0726C2
:102BD0001AE6A82303FB05852B6A002BF7D02046B5
:102BE00014F02AFD07260FE62D480A9BA9F8963017
:102BF000A7FB000140F6181303FB071126A3D3E936
:102C00000023FFF7B7F920F07F40C9F8980038E5B6
:102C100094F82530D2B25B0963F3020263F3061223
:102C200089F8762099F8772063F3020289F87720F3
:102C3000E4E60AF102033F685B44149314AB1946BF
:102C400038460B9300F0DCF900230E900D93A82377
:102C500003FB058342F6DC30D3F88820002140F2E4
:102C60007123E2FB030140F2E2420023FFF782F905
:102C70000E9AA7F848001499384600F065F9002824
:102C80007FF41AAE01230E9366E509F18000C9F8BE
:102C9000880089E6AFF300808D49FD1A0700000027
:102CA00000A0724E0DF1470314A901930DF14603E4
:102CB0000B9100930C9A0B462046202100F03CFA21
:102CC0000C9068B106469FE5A82303FB05852B6A97
:102CD00013B1204614F0B0FC484613F0B3FE76E77B
:102CE00004220DF1510112A807F0C2FC12990D98AF
:102CF00017F02EFB676D87B33F680B990AF102034B
:102D00005B443846149300F07BF9FF2211460E9085
:102D1000384616F0BDF9144911A3D3E90023A0FBEE
:102D20000101FFF727F9149B0E99023320F07F422F
:102D30000B441A440D99204600F062FF00287FF4EE
:102D4000BBADD9F854300F9A0C929DF847205A75B4
:102D50009DF8463084F8293079E70E97FCE400BFEF
:102D60008D49FD1A0700000000CA9A3B00000000D0
:102D7000F0B5C469B4F8963083B053B1B4F8942078
:102D80009A4206D3266D00224323A4F8962033727C
:102D90001BE0D4F89850002D54D0D4F88830304837
:102DA0009122A3FB000102FB03112BA3D3E9002313
:102DB000FFF7E0F820F07F4085424FF0000741D850
:102DC000266DC4F898703C233372264D264A651B45
:102DD000ED08A2FB0535C5F34705012D0CD9234AA3
:102DE0002349244840F2DB7304F08AFE404080F31C
:102DF00011884FF0030002DF12233371606DB4F8C5
:102E0000943073724FF6FF727281F580E0B1006802
:102E100016F098F8021D184B0094D2B20121002040
:102E200011F056F930F002030CD0104A1349114842
:102E300040F2F47304F064FE404080F311884FF0D8
:102E4000030002DF03B0F0BDAA1C0D4B0094D2B208
:102E5000012111F03DF9E5E78D49FD1A0700000059
:102E6000002AE7841C35002019866118382D0300DC
:102E7000782D030050130300697A0100842D0300AC
:102E8000217A010000000000F0B590F8243090F89D
:102E900025708BB0C3F342030D46044601210DF1AA
:102EA000230016468DF823300FF092FFC7F38207F8
:102EB00002463B463146284614F0F2FE1E491CA34A
:102EC000D3E90023A0FB0101FFF754F823699842DE
:102ED000054621D21B1A00220192184A0293A21A17
:102EE000174BD208A3FB02320221520800230A44E6
:102EF00009AE099113490591CDE903330321D2B2FB
:102F000006960093184611F0CBF8314613F04EFEAA
:102F100048B925610BB0F0BD02D9C21A0023DBE726
:102F200000200BB0F0BD0C200BB0F0BDAFF3008063
:102F30008D49FD1A0700000000CA9A3B1C3500208D
:102F400019866118D55F01002DE9F04300268DB088
:102F500004460F46C0E905662549067015465C2201
:102F60000FF060FD069403962269B4F848301544CA
:102F700040F2E244049503FB04F41E4D1E4B0793FC
:102F80001E4B0593A4FB055402230DF12C090B9352
:102F900000F104082146284613A3D3E90023CDF805
:102FA0002090FEF7E7FF104619464FF47A7200238F
:102FB000FEF7E0FF0CA3D3E9002302902146284648
:102FC000FEF7D8FF5FFA88F8CDE900603B4642463D
:102FD0003046032110F0F2FF494613F0E7FD0DB033
:102FE000BDE8F083AFF300808D49FD1A07000000B3
:102FF000C836002000CA9A3BD55F010071870100E6
:1030000070B5036A1E4E93F821200D4603EB820330
:1030100090F831105A6A00EB810382B0596B044674
:1030200015F06EFB00233122C4E90132E360A0FBFE
:10303000060111A3D3E90023FEF79CFFFF2220F035
:103040007F4011462061204616F022F80AA3D3E9FA
:103050000023A0FB0601FEF78DFF01AA20F07F41AF
:10306000032001F039FB10B9019B01332B600020D4
:1030700002B070BDAFF300808D49FD1A070000005B
:1030800000CA9A3B0000000090F803C070B50446E7
:1030900025481CF0010F18BF0A3415461E464FF094
:1030A0000702A1FB000308BF04341CF0020F18BF85
:1030B000063402FB01311CF0080F19A3D3E90023E9
:1030C00018BF0234FEF756FFAD1B184B2844A3FB74
:1030D0000023590C4FEA131512D01549A378227812
:1030E000A1FB0010C0F3471123F01F03C0F34430CD
:1030F000184342F08003A07061702370204670BDB9
:10310000A278657022F01F02C3F3043313432278C0
:10311000A37061F3C7122270204670BDAFF3008028
:1031200000CA9A3B000000008D49FD1A89888888F2
:10313000B5814E1B000000002DE9F04F40F2012741
:10314000A3B01E4637EA01030D4604460C9200F078
:10315000058194F8293004EB8303D3F82C9099F877
:10316000008008F00F0805F40073B8F1070F0A9308
:1031700017D02BB94FF00C08404623B0BDE8F08FB4
:103180003146042211F8015B20A807F071FA209A59
:103190002946204615F0E8F98046404623B0BDE8B0
:1031A000F08F09F1040299F8023009920A9A13F09B
:1031B0003F0B18BF99F803B012B1DB0940F07083E0
:1031C0002C9904F128001EF0B3FF99F8003003F0A9
:1031D0000F02037823F03F0313430246074602F829
:1031E000023B99F80230817813929B09626D63F378
:1031F000871181704FF0000A04F11C00002A00F0D2
:103200003183537D02EB8303996913681293CB7862
:103210000B9102310F9103F001010E910D930B9B65
:103220002D9902F114001A1D1E921EF081FF0B9BB6
:103230003A7819780D9B8046C2F30302C1F38010DF
:1032400042EA801201F080010A4388F80020BA782F
:1032500098F80210920962F3871188F8021008F1B9
:10326000040215F001011D924FF0010A0BF001025A
:1032700040F08280002A00F0578199F8002098F8E9
:103280000000C2F3801262F3861088F800003A78DA
:1032900061F386123A7009F10A0209920E9A002A25
:1032A00040F0538108F10A021D921BF0020F03F057
:1032B00002021B9200F02281099A98F8001006324F
:1032C000099299F80020D20962F3C71142464FF0E3
:1032D000030A02F8101B1D923A786FF3C7123A7076
:1032E00003F0020212B11E9A06321E921BF008026F
:1032F000169202D0099A0232099215F0080240F0A3
:103300002E811F921D9A02324AF0080A1D9213F074
:103310000802179202D01E9A02321E921BF010026F
:10332000189202D0099A033209924FF018028DF8D0
:10333000502007F109020D92E90603F010021092E5
:1033400029D40C9AD20633D403F01002002A00F0DC
:10335000AA821E9A15924AF0100A30E08D4A8E49D0
:103360008E4840F2855304F0CBFB404080F3118837
:103370004FF0030002DFECE616F801CB98F80000EE
:103380006CF3861088F8000038786FF38610387078
:10339000002A83D07FE73046032200F8012B1DA9C5
:1033A0000422119307F064F9119B4AF0100A0536C4
:1033B000109A002A00F0D08000211E9A1591033245
:1033C0001E921AF0100F5FFA8AF102D01D9A033292
:1033D0001D9203F02002AD0611920ED40C9A9006B5
:1033E0001AD403F020001E9A002800F060824AF0F0
:1033F0002005AA46E9B2199215E03046122200F8DB
:10340000012B1DA9042219934AF0200507F030F979
:10341000199B0536AA46E9B211981E9A002800F0B9
:1034200098800020199012321E92890602D51D99AB
:1034300012311D911BF0400F10D0099901310991F3
:1034400094F8251001F01C01102900F050824FF073
:1034500058018DF8501007F10A010D915D0603D552
:1034600001321E924AF0400A1AF040031A9302D029
:103470001D9B01331D930D9B1399A3EB010B5FFA69
:103480008BFBBBF1020F03D8FB1C0D934FF0010B1C
:103490000F9BD21AD2B2022A03D80B9B03331E937E
:1034A00001220B9B5B78934271D31D9D08F10201B1
:1034B0006D1AEDB2022D03D808F103011D9101250B
:1034C0000A99002940F0B0810C99880568D49B1AAC
:1034D000DBB20A931E9B20930A9AAB18FF2B40F392
:1034E000098201352A44B945327000F017820B9BDE
:1034F000984500F00C824FF045083DE679B903F09D
:10350000020262B10B9A98F800101278D20962F3A5
:10351000C71142464FF0030A02F8101B1D923A7879
:103520006FF3C7123A70DBE60E9A002A2FD00B9A7F
:1035300098F800001278C2F3801262F3861088F8BF
:1035400000003A7861F386123A701E9A06321E9293
:10355000A8E61198199068E7109A159231E731465C
:10356000022201F8012B1FA8042210930D9107F0ED
:103570007FF80D99042208461DA907F079F81D9AD5
:10358000109B02324AF0080A05361D92BFE64FF042
:103590001F08F1E5182F0300DC2F03005013030070
:1035A0000A9B209319462B460022B87887F801B071
:1035B0000BF1FF3B6BF30500B87088F8013098F809
:1035C00002301D98013D65F3050388F8023007F0CD
:1035D00035F898F80230990600F02081149B5A06BD
:1035E00000F169811A9B4BB1DDE91D32511E1E911C
:1035F000591E1D9112F8012C03F8012C119B13B1D7
:103600001E9B123B1E935FFA8AF39B0602D51D9BFD
:10361000123B1D93199B23B11D981946122207F0E6
:103620000DF8189B13B1099B033B09930D9E94F869
:10363000253016F8032C6FF3050206F8032C5D09FC
:103640001EF05CFB16F8011C16F8032C32288CBF08
:103650000020012095FAA5F3002DB3FA83F301F0C1
:10366000E00108BF4FF0FF3363F3471160F38612A8
:10367000002363F3C71206F8023C109B06F8011CF6
:1036800006F8032C13B11E9B033B1E931D985FFA93
:103690008AF3DE06159B44BF03381D9023B1032235
:1036A000194606F0CBFF1D98169B13B1099B023BF0
:1036B0000993179B13B11E9B023B1E930D9D94F81B
:1036C000922015F8043C02F00F0262F30713811EEA
:1036D0001D9105F8043C10F8013C1F9962F3071393
:1036E00000F8013C002900F009814B780A7803F0CA
:1036F0000F0342EA03230D9911F8042C22F00F0264
:1037000042EA132201F8042CDAB201F8052C00F881
:10371000022C10F8012C22F00F0242EA132300F8C9
:10372000013C5FFA8AF39D070BD51B9B002B00F031
:10373000FA801E9906391E91083806221D9006F05F
:1037400097FF5FFA8AF3D8070CD50E9B002B00F089
:10375000EF801E9906391E911D98062206381D908D
:1037600006F086FFBB780B9899061CBF9DF8503079
:10377000FB7098F802309A0694F8263018BF88F843
:1037800003A003F00103009394F82530159A4FF439
:1037900096715B090191414615F0CEFD129B93F89D
:1037A0005A30DB073AD594F83D30129D04EB830480
:1037B0004146226C284614F0A3FF634960A3D3E975
:1037C0000023A0FB0101FEF7D5FB2D6920F07F440B
:1037D000AC4280F0B0802E1B0025129F5B49022373
:1037E0005C22384621930FF01DF9002358490195BA
:1037F000021D21ADCDE90333D2B2009318460591E5
:1038000002960321069510F04BFC294613F0CEF9E1
:10381000804600287FF4AEAC3C61ADE44FF0000878
:10382000404623B0BDE8F08F31469B1ADBB23278B8
:1038300001F8013B0A9220A804220F930C9106F094
:1038400017FF0C99042208461EA906F011FF0A9BD7
:103850000536002B7FF440AE20990F9B00297FF4A2
:10386000A2AE36E615F0B6FB129078B3DDF848E06C
:10387000CDF838A09EF831200EEB82020121506B6A
:103880000B9084461CF8022BCDF83CC002F03F039D
:103890000370417080F803A00EF11C025346BDE492
:1038A0004FF0120868E403F01002159289E503F066
:1038B00020001990B9E5099A0D9912F8013C01F818
:1038C000013C531E09934B1E0D9397E6B9457FF4B7
:1038D00053AC204A204921484FF4B76304F010F953
:1038E000404080F311884FF0030002DF44E44AF0C7
:1038F000400AB3E50A9A2099DBB256E6184931F836
:1039000012305D1C21F81250C3F30B03F3E62D9A1D
:10391000636D12785A754FF045082DE42C9B1B7887
:1039200084F82930E3E5099B063B0993194603E730
:10393000099B991F10E77FF671AF651B00264CE7C6
:103940008D49FD1A0700000000CA9A3BC8360020C6
:10395000D55F0100182F03002C3003005013030023
:1039600098360020000000002DE9F04F836D984943
:10397000DFF860B2DFF860A293B0682209931B6899
:103980000B9018460A930FF04DF80025861DFF2373
:10399000CDE90E55F6B28DF8353004240DF144080A
:1039A0000DF136070DF138090CE00F9BAB4202D048
:1039B00074B3013CE4B29DF83530FF2B3BD09E42FE
:1039C0004AD00F9D854B0593002010ABCDE90093A5
:1039D0000221CDE90300CDF8188002970FAB0DF15D
:1039E0003502119110F0B6FB022800F0D680119B31
:1039F000002BDAD07A4940F62A035A46504604F0A2
:103A00007FF8404080F311884FF0030002DFCCE7DD
:103A1000744940F62C035A46504604F071F8404071
:103A200080F311884FF0030002DF9DF83530FF2B43
:103A30004FF0FF04C3D16C4940F62E035A4650465E
:103A400004F05EF8404080F311884FF0030002DF7D
:103A50009DF835309E42B4D1109B64490E9FA3F56A
:103A60007422A2F510728A4207D903F1E873013F6C
:103A700003F5D4330E9703F5A5730A9A5C4E526E84
:103A8000A6FB03139E0C5949A2F57423A3F51073EA
:103A90008B4207D902F1E872013702F5D4320E9752
:103AA00002F5A5720B9B596D514B487DA3FB022378
:103AB0000A7D9D0C82421095D3B204D00133DBB253
:103AC000022B08BF002301EB83039C69E378D8072E
:103AD00048BF0A34474858BF0434990748BF0634E2
:103AE0001A0748BF0234A7FB0001DB064FF00703AB
:103AF00003FB071134A3D3E9002348BF0334FEF7C7
:103B000039FA731B1844B0F5161F05D3637843F0D8
:103B10004003A0F516106370374BA3FB0023590C2C
:103B20004FEA131245D0354A6378A2FB0020C0F358
:103B3000443223F01F031343C0F3471043F0200324
:103B4000207063700998BDF83620018A838A0B447F
:103B50001344238290F8242090F825108A429BB2C7
:103B600005D0C08C1B1A13F4004F18BF1146099AD8
:103B7000062303FB012118310522201D06F078FDE4
:103B8000237A03F01F0323721EF0B6F8237A43EA68
:103B90004013237213B0BDE8F08F119B022B7FF40A
:103BA00026AF0221002010F033FB119B022BF8D02E
:103BB0001DE722706278C3F3043322F01F0213431F
:103BC00061F345136370BDE700CA9A3B0000000033
:103BD000A4370020BC3003005013030031A10100C2
:103BE000742F03007C2F0300AC2F0300BFBDF07FB8
:103BF00083DE1B438D49FD1A89888888B5814E1B59
:103C00002DE9F04791F84530314F002501EB830352
:103C10000D709B6C8D610C464D618CB059782046BF
:103C2000904616F07BFB3123C4E90153E56026A3DF
:103C3000D3E90023A0FB0701FEF79CF9B4F860600C
:103C4000244920F07F400DF12C09206140F2E2432D
:103C50006822204603FB06F60EF0E4FECDF8209025
:103C600006942369CDE903531B4B07931B4B059324
:103C7000A6FB07A606300223C7B20B935046314677
:103C800011A3D3E90023FEF775F9104619464FF446
:103C90007A720023FEF76EF90BA3D3E9002302909A
:103CA00031465046FEF766F94346CDE900503A46A4
:103CB0002846032110F082F9494612F077FF0CB034
:103CC000BDE8F087AFF300808D49FD1A07000000C2
:103CD00000CA9A3BA4370020D55F010089A10100EA
:103CE000F0B549788BB0044616F018FB1E491CA3AA
:103CF000D3E90023A0FB0101FEF73CF9266920F07F
:103D00007F45AE421FD9761B00270223174909932E
:103D1000682220460EF086FE002315490296821D79
:103D200009AE0591CDE903330321D2B20197009387
:103D30001846069610F0B4F9314612F037FF48B92C
:103D400025610BB0F0BD02D2AF1B0026DDE70020DD
:103D50000BB0F0BD0C200BB0F0BD00BFAFF3008086
:103D60008D49FD1A0700000000CA9A3BA4370020C5
:103D7000D55F0100000000002DE9F04FB0F8409140
:103D8000468EB0F82EB0D0F83C7191B04E44BDF8DC
:103D90007450BDF868800B915E44B6B2CDE90E2335
:103DA000721B92B283680A92BDF86C200C92002BB1
:103DB000BDF870200D92044609DAC168426823F00C
:103DC000004391422CBF7F18BF188360FF1A0A9BE3
:103DD000608D10FB03F080B2B0FBF8F118FB01F32B
:103DE0009BB298421FFA81FA80F0C9801B1A96494B
:103DF00040F2E24003FB00F0A0FB010190A3D3E9F5
:103E00000023FEF7B7F820F07F400744D9444D4423
:103E1000AE1B94F839305644E685DB0940F2E246A1
:103E200006FB08F540F0BC80884A8949894841F67C
:103E30002A7303F065FE404080F311884FF00300C1
:103E400002DF0026A9460C9B0D9AA38542F210734F
:103E500003FB025329462046A4F82A80013BB3FB0A
:103E6000F5F3A4F8B43119F0B1FE7B4BA18D2B44CE
:103E7000881DB3FBF5F39AB29042A4F8AE2102D2AA
:103E8000521A063A92B20B9BA4F8AA2113B100234E
:103E9000A4F8B6310221012021F084FA0022022187
:103EA000834601200EF02EFE6C494FF4E872204646
:103EB0000EF0B8FD00F107085FFA88F8684B00942F
:103EC00042460121002010F003F930F002030CD02B
:103ED0005E4A64495F4841F6517303F011FE404069
:103EE00080F311884FF0030002DF574DA9FB0559FD
:103EF00053A3D3E9002328464946FEF73BF820F0B8
:103F00007F4A5948089406940723AAFB000103FB43
:103F10000A1123690493554B0793554B0593281AAF
:103F20004FF6FE7369EB010103934FF47A7200239D
:103F3000FEF720F83B46CDE901A00096424601215C
:103F4000002010F03BF830F002030CD03F4A454906
:103F5000404841F6657303F0D3FD404080F311887B
:103F60004FF0030002DFBBF1000F63D194F8A831DA
:103F700043F0010384F8A83111B0BDE8F08F08FBCD
:103F8000110140F2E243304889B203FB01F1A1FB89
:103F900000012BA3D3E90023FDF7ECFF3F1A35E71F
:103FA000226C0A99A36CDFF8A0B002FB1133A36462
:103FB0001DF0A4FE814694F89C01C0F342001DF060
:103FC000A1FE814405FB09F92A4B0E9A09F57429D3
:103FD00009F23F29A3FB09394FEA994306FB02F294
:103FE00003FB0AF02364A5EB0309A36C22656A08AE
:103FF0000344963A934228BF1346C4E91123002391
:10400000C4F8A431A0FB0B010DA3D3E90023FDF7F5
:10401000B1FF0F9B3F1A1848A0FB0330800A06FB34
:1040200000F007A3D3E90023A0FB0B01FDF7A2FFDB
:10403000064608E70122022110460EF063FD95E7CF
:104040008D49FD1A0700000000CA9A3B1C3103008D
:1040500080510300501303007FC3C90130140020B6
:10406000B9B60100F03103008D49FD1A61B60100B7
:104070007D07020083DE1B435917B7D10000000003
:1040800038B5044600251AF07BFE2046C4E94655A3
:1040900084F824511CF09EFA07222946C4E94A55A7
:1040A000A4F8345184F83651A4F8385104F5A270BC
:1040B00006F01EFB0222294604F5B47006F018FB38
:1040C0002946182204F5A87006F012FB94F88E30E9
:1040D00084F8765106A1D1E9000123F01803C4E960
:1040E000580184F88E30658638BD00BFAFF300807C
:1040F0003F718900100000002DE9F04F0B68D2F8E5
:1041000000B01E68037F95B0C3F3801905468A4648
:10411000174600F11E01062212A8CDF8309006F0D5
:10412000A7FA12A9062210A806F0A2FA2C7FD5F849
:1041300000C0CDF82CC0E40906F19D0810AB4A463A
:104140004146204617F0D4FD002840F0CC819BF872
:10415000C2210D9069F341028BF8C22110A90622F9
:104160000BF2C91006F084FA9BF8C22164F3000236
:1041700041468BF8C2210BF2C310062206F078FAF2
:1041800007F10409032205F12E0107F1080006F0EA
:104190006FFA07F11804042205F12A01484606F0D7
:1041A00067FA052205F13A01204606F061FA052179
:1041B00020460EF00DFE797F95F83F2000F03F007D
:1041C00060F305017977C2F30401B977B5F834805B
:1041D000A7F80E80012802F01F021FFA88F140F2B2
:1041E00082811B3202F01F020B2A00F27C810D9BA0
:1041F000002900F07881DAF80020536095F8372024
:1042000095F8363043EA02233B82736D6A8E0E9234
:1042100040F2E24404FB01F8002B00F0E38196F841
:10422000253040F6C414DB0940F6A66308BF2346D8
:104230000F930021584619F0DDFC95F83F309BF8AC
:104240009C215B0963F343028BF89C211DF056FD12
:1042500004469BF89C01C0F342001DF053FD231857
:1042600008FB03F3C44A03F5742303F23F23A2FBC4
:1042700003239B0C4FEA58027B62963A95F8313043
:10428000BA6240F2E24202FB03F3BB632C8F42F2BC
:104290001072A3B202FB038341465846013BB3FBB5
:1042A000F8F3ABF8B43119F091FC398AB34BB44A46
:1042B000CBF8B8214344881DB3FBF8F39AB282428D
:1042C000ABF8AE2104DDC1F57F41FA310A4492B268
:1042D000ABF8AA21494604220BF5D07006F0C8F9C4
:1042E000736D002B00F0798101230D93EA0700F133
:1042F00059819DF83030AB774FF4807310A9AB83B0
:10430000062205F11F0006F0B3F99BF89C31FA89EB
:10431000EA84C3F342033A8A2A856C8585F82C30F7
:10432000584617F001FA0423B881E88087F8B630C0
:10433000DAF804400B98294612F096FBBB89E3801B
:104340001C2323710D9B2568002B40F004810D9BDD
:10435000237710F0F7F9002840F0E6802146284640
:1043600012F082FB12F08AFB97F85B00B7F840402E
:10437000B7F84250012100F007001DF0BFFA2544B4
:1043800005F56175291881467E4800253123CBF853
:104390000830A1FB000176A3D3E90023CBF8045039
:1043A000CBF80C50FDF7E6FD7B6A0E9AA8EB0308EC
:1043B000DAF80C3040F2E24404FB023420F07F4093
:1043C0000F9BCBF81000303C2A46022101201C44F0
:1043D0000EF098FB736DA4EB0904A3B11F68384677
:1043E00014F0B0FD021D684B0097D2B2284601219F
:1043F0000FF06EFE012800F00A8197F85A306FF333
:10440000000387F85A30304614F06AF8821C5E4B7D
:104410000096D2B2012100200FF05AFE012800F0D0
:10442000E38096F82430DB0776D4584617F07CF901
:10443000DFF85091A8FB09864DA3D3E90023054678
:1044400031464046FDF796FDDAF80830CDF818B051
:10445000A3F1490A4D4B07934D4B05934FF4EB7372
:104460000893DBF81030049320F07F47494800237D
:10447000A7FB000103930723B8EB000003FB071120
:1044800066EB01014FF47A720023FDF773FD38A348
:10449000D3E90023CDE90170A4FB0901FDF76AFD12
:1044A000073520F07F40EDB2009053462A460121A7
:1044B00000200FF083FD30F002030CD0364A37495C
:1044C000374840F2D71303F01BFB404080F31188BC
:1044D0004FF0030002DF0122022110460EF012FB12
:1044E00015B0BDE8F08F97F82030EC680B980022EB
:1044F000726162F30003012687F8203029462E718D
:1045000012F0B2FA20682671214612F0ADFA12F0CC
:10451000B5FA15B0BDE8F08F0023012200931846CC
:1045200011460FF0D5FD80E72146284612F09CFA8F
:10453000346D3046256813F0D3FF5FFA80F9B9F186
:10454000010F3CD812232371BB8963810023A4F897
:104550000690238102E77B7F43F040037B77484648
:104560001CF01AFD0123F8832377F2E6AFF30080F5
:104570008D49FD1A0700000083DE1B437FC3C9017C
:10458000404B4C0000CA9A3B410702001107020051
:104590007D0702008D49FD1AD4350300F031030078
:1045A00050130300234A24492448FF2303F0A8FAA8
:1045B000404080F311884FF0030002DF99E61D4A66
:1045C0001F491E4840F2531303F09AFA404080F30B
:1045D00011884FF0030002DFB4E72B7FC3F34013D1
:1045E0000D9383E60F9424E612F01EFB86423FF4FF
:1045F00018AF104A1349114840F2A12303F080FA82
:10460000404080F311884FF0030002DF09E712F009
:104610000BFB87423FF4F1AE064A0A49074840F2D5
:10462000A12303F06DFA404080F311884FF003009E
:1046300002DFE2E6D4350300B42A0300501303007E
:10464000782D03003036030038B5031FDBB2012B91
:104650000D4616D906282BD00738C3B2012B02D934
:104660000024204638BD80B217F066F80028F7D045
:1046700090F93930002BF3DB03692B6004462046A8
:1046800038BD184614F0F6FC04460028E9D0FF2295
:10469000114614F0FDFC0E490BA3D3E90023A0FB47
:1046A0000101FDF767FC20F07F402860204638BDFF
:1046B000002015F015FE04460028D2D0FF2115F089
:1046C0002DFEE8E7AFF300808D49FD1A07000000DA
:1046D00000CA9A3B0000000030B585B003AD0095DC
:1046E00002AB14461CF006F9FF282ED0021FD2B2EE
:1046F000012A0ED9062810D0C31FDBB2012B24D803
:10470000DDE9022123680A4413442360002005B038
:1047100030BD2946FFF798FFF2E7002015F0E0FDD5
:10472000B0B1FF2115F0FAFD0D490BA3D3E9002329
:10473000A0FB0101FDF71EFC20F07F4223680299D7
:104740000B44134400202360E1E76FF00900DEE72B
:10475000039AF3E7AFF300808D49FD1A07000000CC
:1047600000CA9A3B00000000032957D870B50446E0
:104770007AB3072A02D06FF0850070BDD3E900201C
:104780002B4BC117C2FB0301012871F1000336DB7B
:10479000284BC01841F1000123A3D3E90023FDF702
:1047A00099FBB0FA80F566682469C5F11E05EDB283
:1047B0002946304604F06AFB337D002B14BF0021EC
:1047C00002210028D9D10D44F42101FA05F5E58034
:1047D00070BD1988406871B101290CD00C2918D915
:1047E000154BA3FB0131C908B1FA81F1C1F12201D6
:1047F000C9B20929BFD8BDE8704004F0FFBA0F4B19
:10480000C01861F1000108A3D3E90023FDF762FBA2
:10481000C7E7BDE87040022104F0F0BA6FF08500F0
:10482000704700BFAFF300803AA39500000000007E
:1048300040420F009DD14A001F85EB51632EB5FF0A
:104840002DE9F04FDFF800918DB00DF12F010446F6
:104850000DF12E0012F082F99DF82EA09DF82FB0D8
:104860000FF0EEFCD9F80050384BA5FB03568046FC
:1048700033A3D3E9002328463146FDF77BFB334BB6
:10488000069420F07F44D9F80400A0FB0301304BCC
:10489000059300272AA3D3E90023CDE90777FDF785
:1048A00069FB20F07F40CDE903702A480723A4FB71
:1048B0000001281A03FB041166EB01014FF47A7220
:1048C0000023FDF757FB0097CDE9014043465A46C8
:1048D000504603210FF072FB30F0020404D06FF059
:1048E0008B000DB0BDE8F08F1B481C4A002328F058
:1048F0002FFA20B9D9F80C000DB0BDE8F08F23468F
:104900009DF82F209DF82E00009403210FF0E0FB6E
:1049100030F0020311D0124A12491348E42303F085
:10492000EFF8124803F0ECF80D48E42103F0E0F84A
:104930006FF073000DB0BDE8F08F6FF07300D0E73B
:104940008D49FD1A070000004058002000CA9A3B1C
:10495000D97D02008D49FD1A50580020447B0B0080
:104960007C420300D842030050130300204303009D
:1049700038B50F4D04460FF063FCA9680FF062FCD8
:10498000696803460B48B3FBF4F4A1FB00011C4427
:1049900005A3D3E90023FDF7EDFA20F07F40844220
:1049A00094BF0020012038BD8D49FD1A070000008A
:1049B0004058002000CA9A3B014828F0DDBD00BFE6
:1049C000701A00202DE9F0470B78023B0C46042BAF
:1049D00007D8DFE803F00D3903470800284B4A6881
:1049E0001A60BDE8F087274B0A791A60BDE8F087A6
:1049F000254DCB68B5F800A0534453453DD9234E0F
:104A0000DFF88C80234FDFF8909010E03B68642B38
:104A100013D809F8031001333B608368DB699847BA
:104A20002A88E3680AF1010A1344534525D96368CB
:104A3000306813F80A100D29E8D183685B6998473C
:104A4000404628F099FDEBE7104B0F4A18680C49D7
:104A5000836809681B6900241480BDE8F0474FF49F
:104A600080721847074B1A68002ABAD00022BDE8A6
:104A7000F0470A481A6028F07FBD2B80BDE8F08718
:104A800060020020A41A002068590020901A00201B
:104A9000801A00206C1A0020081A0020941A0020A6
:104AA000F8B5094F0546441EC0F1010605E0386817
:104AB00014F8011F8368DB699847284605F064FDF8
:104AC00033199842F3D8F8BD901A002010B5084C5D
:104AD000206883685B69984740F6CD4000212AF042
:104AE00089FB20680021BDE8104004F0BDB800BF7C
:104AF000901A0020094B10B5186884680849E468CA
:104B000001234FF48072A04764220648002105F07B
:104B1000EFFD054B00221A6010BD00BF901A002067
:104B2000A81A0020081A00206C1A002030B5494D40
:104B30004948286083B026F0D9FF002800F086801D
:104B40002BF01CF94C0143011B1A44EAD06464EBBE
:104B50000104A40044EA93749B001B1841EB040475
:104B6000E40044EA5374C3F3103343EA444428682E
:104B700083681B6A002B46D09847002843D12C68D5
:104B8000A3681B68002B61D0024634492046984731
:104B900000285BD12868012104F066F82868826843
:104BA0002F49D46801234FF48072A047044600289F
:104BB0004CD1014664222B4805F09AFD2A4B286807
:104BC0001C6083685B6A002B40D0284998470446E4
:104BD00000283BD12649274828F0F2FB26492748E0
:104BE00028F0EEFB2649274828F0EAFB00220023A4
:104BF0002548CDE900234FF4A02200232BF0E4F94F
:104C0000204603B030BD2BF0B9F84A014FEA401CF2
:104C1000BCEB000C42EAD06262EB010292004FEA68
:104C20008C03181842EA9C7241EB0201C90041EA68
:104C30005071C0F3103040EA4140001BB0F57A7F5C
:104C400095D96FF00404204603B030BD6FF00D0419
:104C5000D6E700BF901A0020B00E0300C54900003F
:104C6000A81A0020081A00206C1A00201013030054
:104C700059500000801A0020CD4A0000701A002010
:104C8000F54A0000941A0020100C0020F0B5A5B0E1
:104C9000044616460D46642200210BA805F028FDA7
:104CA000BB480422214605F091FC10B9042D00F008
:104CB0005F81B8480922214605F088FC08B9092D12
:104CC00066D0B5480722214605F080FC10B9072DB3
:104CD00000F09A80B1480222214605F077FC10B915
:104CE000022D00F0C680AE480622214605F06EFC7B
:104CF00010B9062D00F04581AA480A22214605F088
:104D000065FC10B90A2D00F09981A74809222146B7
:104D100005F05CFC074610B9092D00F2AF80A348EE
:104D20000922214605F052FC10B9092D00F06581D9
:104D30009F480922214605F049FC0746D8B90D2DA8
:104D400019D926F0DFFE0A220760394604F10D006A
:104D500005F07EFB044626F0D5FE0368002B6DD1DE
:104D6000002C00F06881012C0DD100F069FA914807
:104D7000B04720460AE090480922214605F026FC6B
:104D8000074600285FD08D48B047002025B0F0BD11
:104D900007AC01460D22204605F0AAFC03A800F04E
:104DA000BDFA9DF80C30002B40F03D819DF812209B
:104DB0009DF811308DF814208DF815309DF81020D5
:104DC0009DF80F308DF816208DF817309DF80E20C5
:104DD0009DF80D308DF818208DF8193005AD06219D
:104DE00022460D23284601F0D9F9204600F0D8FAD2
:104DF000734922460BA805F0B9FC0BA8B0477148CF
:104E0000B047012025B0F0BD07AC05AD22462946CC
:104E100003A8FDF751FA074608B96B48B047224688
:104E2000294603A801F0B8F8002840F0DD80674863
:104E3000B04701F0F3F808B96548B0475F48B0479C
:104E4000012025B0F0BD092D9DD926F05BFE0A2278
:104E500007603946A01805F0FBFA044626F052FE1A
:104E60000368002B8FD1A1B2084600F00BFA00288E
:104E700089D05048B047012025B0F0BD26F042FE51
:104E80000A220760394604F1090005F0E1FA0446F8
:104E900026F038FE0368002B7FF475AF04F1280379
:104EA000302B3FF670AF01A252F823F019500000EA
:104EB000874D0000874D0000874D0000874D0000A2
:104EC000874D0000874D0000874D0000874D000092
:104ED000874D000019500000874D0000874D0000ED
:104EE000874D0000874D0000874D0000874D000072
:104EF000874D0000874D0000874D000019500000CD
:104F0000874D0000874D0000874D000019500000BC
:104F1000874D0000874D0000874D000019500000AC
:104F2000874D0000874D0000874D0000195000009C
:104F3000874D0000874D0000874D0000195000008C
:104F4000874D0000874D0000874D0000195000007C
:104F5000874D000019500000195000001950000042
:104F6000195000001950000019500000195000009D
:104F700018490091184B194A19490BA805F0F6FB7E
:104F80003BE71848B0470F48B047012025B0F0BDB7
:104F9000181203003C12030058120300A41203006D
:104FA000A8120300C4120300D0120300DC12030095
:104FB000F41203009012030004130300981203007C
:104FC0004812030034120300601203007012030041
:104FD000801203009417030004120300E811030079
:104FE00020120300B012030001F018F800283FF46B
:104FF00023AF002F7FF43DAF20E707A801F0A2F810
:105000009DF91C2012490BA805F0B0FB0BA8B04776
:105010001048B0470120B9E660B201F069F80D48C8
:10502000B0470120B2E605AD06220DF10D0128467C
:1050300005F01EFBD3E600F01DF91AE70548B0475E
:1050400041F69A1000212AF0D5F8012002F066FD01
:10505000E812030090120300F8B5174F174C3B6895
:10506000632B28BF63230022E254204605F08CFA0C
:10507000134A01462046FFF709FEC0B90F48114EFA
:10508000114D6422002105F033FB00233B603068A2
:1050900082680123D46829464FF48072A0470446F1
:1050A000A42000212AF0A6F8002CF0D1F8BD074872
:1050B0002AF0E2FFE2E700BF6C1A0020081A002085
:1050C000A14A0000901A0020A81A0020100C00200D
:1050D00010B5154C206808F07FFB38B9206808F03F
:1050E00017F890B9114B00221A7010BD10491148E1
:1050F000114AC52302F004FD0F48C52102F0F8FC57
:10510000206808F005F80028ECD00B4A0B49094844
:10511000C62302F0F5FC0848C62102F0E9FC034B67
:1051200000221A7010BD00BFA81C00207A59002070
:105130002C13030050130300181303007013030013
:105140002DE9F04F85B016461D468A46FCF72AF930
:10515000314BDFF8C890324CDFF8C880324F002264
:10516000FCF7B4FAFCF7C2FBA9F800005046FCF7C4
:1051700019F9294B0022FCF7A9FAFCF7B7FBA8F8AC
:1051800000006069294B4FF0000B31460A220430C1
:1051900083F800B005F06CFA6069294606220E30EB
:1051A00005F066FA606901220EA9033005F060FA85
:1051B0001F4859463A4607F075FF10B105B0BDE8E3
:1051C000F08F2146009003460322386807F0FEFF67
:1051D000184938680DF0E4FA0028EFD1B9F800104A
:1051E000B8F80020ADF808104FF480433868ADF8E7
:1051F0000A2002A9039308F0C1F90028DED138681B
:105200000DF088FB03460028D8D10B4900930222F9
:105210000A4808F0C7F8D1E70000F43F6C590020B5
:10522000980200206A590020A81C00207A5900200A
:10523000B8020020B002002094130300CC0200202A
:1052400038B5094C237803B138BD084D286808F0FB
:10525000BFFA0028F8D10649286808F005F90028A7
:10526000F2D10123237038BD7A590020A81C0020F8
:10527000AC1C0020024B1B7803B97047FFF728BF16
:105280007A59002070B582B00D46FCF78BF8184BA8
:10529000184E0022FCF71AFAFCF728FB84B22846C5
:1052A0003480FCF77FF8124B134D0022FCF70EFA06
:1052B000FCF71CFB114B1A7883B22B801AB1FFF755
:1052C00007FF34882B880E4AADF800406946106805
:1052D000ADF802304FF48042019208F04FF90446D5
:1052E000FFF7AEFFB4FA84F0400902B070BD00BF12
:1052F0000000F43F6C5900206A5900207A590020C0
:10530000A81C002010B4044C03460A46206810BCB8
:10531000194608F0BDB900BFA81C00204FF01023AB
:10532000D3F8802001321AD04FF010230021D3F897
:105330008420120A4270D3F884208270D3F880202F
:10534000120EC270D3F88020120C0271D3F88020A4
:10535000120A4271D3F88030837101707047D3F81C
:1053600084300133E0D14FF080530121D3F8A820DD
:10537000120A62F03F024270D3F8A8208270D3F87C
:10538000A420120EC270D3F8A420120C0271D3F81C
:10539000A420120A4271D3F8A430837101707047BF
:1053A00010B5044605F0F0F800280CDD621E10442C
:1053B00012F8013FA3F1610119299CBF203BDBB228
:1053C00082421370F4D110BD10B5144CA368DB6990
:1053D00082B01BB1124900222046984763681B68BF
:1053E0005B070AD5A3680D485B6801A998470D487B
:1053F00002B0BDE8104027F061BC0B490B4A0C48D5
:1054000040F2CC4302F07CFB0A4802F079FB0748EB
:1054100040F2CC4102F06CFBE4E700BF400E030019
:10542000C81C0020B01C0020D8130300A4130300E4
:1054300050130300181403002DE9F04F644CDFF8FB
:105440009491DFF894B1DFF894A185B04FF0FF326A
:105450004FF0FF33504627F07BFC002840F09D8042
:105460002AF08CFC4B014201121A43EAD06363EB31
:10547000010395009B002D1843EA927341EB030151
:10548000CB0043EA5573C5F3103545EA4343019316
:10549000002140F6CD4029F0ADFE63681B68590736
:1054A00040F1868023690093A36849485B6803A99B
:1054B000984728B9009A039B126853405A072CD585
:1054C0006668474FDFF81C8114E023690093A368E6
:1054D0003F485B6803A99847054628B9009B039D90
:1054E00018684540C5F380054FF4A470002129F0E9
:1054F00081FE95B133685B07E7D4414640F2CC4367
:105500003A46394802F0FCFA384802F0F9FA40F21B
:10551000CC41384602F0ECFAD7E7D9F80030013335
:10552000C9F800302AF02AFC46014B01361A43EA3A
:10553000D06363EB01039B00B200121843EA967339
:1055400041EB0301CB0043EA52730199C2F31032DD
:1055500042EA4342521A4FEAD33363F10003B2F5F1
:105560007A7F73F10003A8BF0120DBF80030B8BFD9
:1055700000209847A368DB69002B3FF467AF1C4904
:105580001348012298474FF0FF324FF0FF33504647
:1055900027F0DEFB00283FF463AF13481549164A95
:1055A0005A2302F0ADFA14485A2102F0A1FA57E743
:1055B0000C490B4A0C4840F2CC4302F0A1FA0B48CC
:1055C00002F09EFA064840F2CC4102F091FA69E7F7
:1055D000400E0300D41C0020D81C0020B01C00206A
:1055E000A4130300D813030050130300181403007E
:1055F000C81C0020401403002C140300324B70B56B
:105600001860324C204626F071FA00B970BDD4E91A
:1056100001361B6825695A0745D52B6836682C4A20
:105620002A4843F004032B600221B0470028EDD143
:1056300001220146274827F031FB274826F0D4FDF8
:10564000A36826492648DB690422C1E9010213B197
:105650001E4801229847D4E901351B6824695B077D
:1056600011D52368AC69194813F0040FA44608BF8C
:105670004FF08063BDE8704018BF4FF000734FF0EB
:10568000A072022160471749174A18484FF41F7348
:1056900002F036FA164802F033FA13484FF41F713D
:1056A00002F026FADDE7104A0E49104840F2DA23EC
:1056B00002F026FA0E4802F023FA0B4840F2DA21F3
:1056C00002F016FAA9E700BFD81C0020400E030024
:1056D00011000100B01C0020180E0020C81C002082
:1056E000C9530000D8130300A41303005013030090
:1056F000181403002DE9F04F514B83B0186826F0C1
:10570000F5F900286FD04E4BD86826F0EFF9002845
:1057100079D04B4B986926F0E9F9002800F0848095
:10572000474CDFF820B1E788256894F8048047F4F7
:10573000202A07F03003AA686E68D5F8109001920D
:10574000302B40D007F00603042B2FD033680126FE
:1057500006FA08F61E4219D0D9F80030FA074CBFF5
:105760001E4323EA0606019B52461B68C9F80060E7
:10577000414628469847344B0C34A342D3D1304A93
:10578000012382F8243003B0BDE8F08F2F49304860
:1057900040F2DA235A4602F0B3F92E4802F0B0F98B
:1057A00040F2DA21584602F0A3F9D5E728482A4901
:1057B00040F2C7235A4602F0A3F940F2C7215846E7
:1057C00002F096F9C2E72549214840F2BF235A4624
:1057D00002F096F9224802F093F940F2BF215846B0
:1057E00002F086F9AEE71F4A1F4919482D2302F03F
:1057F00087F91C482D2102F07BF9114BD86826F05F
:1058000075F9002885D1174A184911482E2302F04E
:1058100077F914482E2102F06BF9094B986926F0AC
:1058200065F900287FF47CAF114909480D4A2F2300
:1058300002F066F90B482F2102F05AF970E700BF19
:10584000E0020020A413030004030020D813030087
:1058500050130300181403008015030004150300FF
:10586000401503005C14030070140300A01403002F
:10587000D41403002DE9F041454E96F82430044637
:105880000D46002B78D0022C6BD8012D09D9414947
:105890004148424A3B2302F033F940483B2102F0A1
:1058A00027F904EB440406EB840356F824601D72C8
:1058B0001A797368D6F810801B680124944023403D
:1058C0002F460ED0D8F80020144221D1002F35D019
:1058D000B3682146DB6830469847002835D1BDE8DB
:1058E000F08140F225532E4A2E492B4802F008F948
:1058F0002D4802F005F92A4840F2255102F0F8F847
:10590000D8F800301C4273681B6803EA040302D015
:10591000B5FA85F77F09002BD8D12249204A1E48C5
:1059200040F2FC4302F0ECF81F4802F0E9F81C4892
:1059300040F2FC4102F0DCF8002FC9D1B3682146E7
:105940001B69304698470028C9D018491248134AA5
:105950003F2302F0D5F8BDE8F04110483F2102F0A6
:10596000C7B80E4A12490C483A2302F0C9F80B484E
:105970003A2102F0BDF888E7084A0E490648392363
:1059800002F0BEF80548392102F0B2F87BE700BF0B
:10599000E0020020D8150300501303005C1403003C
:1059A000A4130300D813030018140300EC1503001C
:1059B000C8150300B415030038B5064B04461D682E
:1059C00004F0E2FD214682B22846BDE8384003F0EB
:1059D000E3B900BFDC1C002048B11D4A137883F0F6
:1059E000010313700BB1FFF72BBCFFF743BC70B57D
:1059F000184D19492B78164A013303F00303012689
:105A000031F813102B70044608461670FFF73AFC65
:105A100031460220FFF72EFF002141F2343029F0F9
:105A2000E9FB00210220FFF725FF002141F234307D
:105A300029F0E0FB01210220FFF71CFF2B78013445
:105A40009C42E9DDBDE8704000210220FFF712BF53
:105A5000380B00207B5900202C17030030B585B08F
:105A600000238DF80B30002834D10DF10B0000F02D
:105A700069FB002304214FF60E409DF90B50039360
:105A800005F0ECFA0446002834D0042104F10800A3
:105A900020F0DCF90023437083700370C57003AA03
:105AA00021464FF60E4005F09DFB10B9039820F0FB
:105AB00089F8174A174B12789DF90B4033F81210EA
:105AC0000094154B154A0846FFF73AFBFFF7B8FB61
:105AD00005B030BD124A13490446C223124802F0F1
:105AE0000FF82146114802F00BF80D48C22101F0D1
:105AF000FFFFBAE70E490A4A0B48F82302F000F804
:105B00000C4801F0FDFF0648F82101F0F1FFBCE769
:105B10007B5900202C170300E01C0020881603008E
:105B20001C16030030160300501303003C1603003C
:105B3000601603006416030001B1704730B593B0DE
:105B4000044608F0DDF91D4B024620461A6008F0B5
:105B500005FE0378044607AD032B29D8DFE803F0E0
:105B6000231E19021649284604F002FDA379059563
:105B700062780492A2780392E278029222790192EA
:105B8000617900910F4A1E210AA800F0B1FB13B001
:105B900030BD0D49284604F0EBFCE7E70B492846E9
:105BA00004F0E6FCE2E70A49284604F0E1FCDDE700
:105BB000084A0A21284600F09BFBD7E7DC1C00209E
:105BC000B0160300C4160300A41603009C160300BD
:105BD00094160300BC1603002DE9F04F8FB02AF095
:105BE000CDF84B014201121A43EAD06363EB01077F
:105BF000BF0093001B1847EA927741EB0707FF00AD
:105C000047EA5377C3F3103545EA47453E4EDFF880
:105C1000FC90FF0B0DF1200A4FF0000807E03378ED
:105C2000002B57D14FF42030002129F0E3FA3378CC
:105C3000002B41D12AF0A2F84A0143011B1A42EA83
:105C4000D06262EB01029C009200241842EA937237
:105C500041EB0201C90041EA5471C4F3103444EA33
:105C60004144621B4FEAD13B6BEB0703914578EB54
:105C70000303D4D3337804AA02A96846002BD1D0F9
:105C800000F08AF9034641F6FF02012106A8002B25
:105C9000C8D0009B0893019B0993029B0A93039B26
:105CA0000B93049B0C93059B0D93CDF81CA0ADF8B2
:105CB0001820FFF727FBB5E701210220FFF7DAFDE7
:105CC00000214FF4A47029F095FA00210220FFF77B
:105CD000D1FDAFE720F04CFA0546FFF7CBFAEBB267
:105CE0004FF40042414640F2E730E3FB02014FF43B
:105CF0007A720023FCF73EF929F07CFA2546FFF77B
:105D00009FFA5F46B6E700BF380B0020BF270900A7
:105D100030B593B008F022FD0378044607AD032B9D
:105D20002ED8DFE803F028231E021849284604F085
:105D30001FFCA379059562780492A2780392E27819
:105D400002922279019261790091114A1E210AA8DA
:105D500000F0CEFA0F4B186808B108F0F7F813B04E
:105D600030BD0D49284604F003FCE2E70B49284604
:105D700004F0FEFBDDE70A49284604F0F9FBD8E70A
:105D8000084A0A21284600F0B3FAD2E7B016030009
:105D9000C4160300DC1C0020A41603009C1603009C
:105DA00094160300BC160300F0B593B00023CDE9B0
:105DB0000A33CDE90C33CDE90E331093ADF84430FE
:105DC0000D46164608F0CAFC0378044607AF032BBD
:105DD0002ED8DFE803F028231E021849384604F0C5
:105DE000C7FBA379059762780492A2780392E278C0
:105DF00002922279019261790091114A1E210AA82A
:105E000000F076FA0F4A31462846FEF73FFF13B0FE
:105E1000F0BD0D49384604F0ABFBE2E70B493846CC
:105E200004F0A6FBDDE70A49384604F0A1FBD8E7F9
:105E3000084A0A21384600F05BFAD2E7B0160300A0
:105E4000C4160300B9590000A41603009C160300F1
:105E500094160300BC16030010B582B020F088F938
:105E600040F2E731C0B24FF47A72002301EBC03048
:105E70000021FCF77FF86C4629F0BCF92046FFF7BB
:105E80004DFA00F0FDF800F055F89DF80030002BB9
:105E900036D11F4A0DF1060313F8011902F8011B50
:105EA000A342F9D1FEF742FEFFF724FC0021084689
:105EB000FFF7E0FC00210120FFF7DCFC00210220BD
:105EC000FFF7D8FC1348FFF799FB134805F06EFF66
:105ED00040B9124802F050FF10B9114826F084F979
:105EE00002B010BD0F49104A10487A2301F008FE95
:105EF0000F4801F005FE0C487A2101F0F9FDE8E7B2
:105F000006220DF10101024804F0B2FBCAE700BF0E
:105F1000E01C0020D95900005D5A00000803002051
:105F2000980E0020E81603001C160300501303000F
:105F30000417030070B5002182B0154802F094FEEA
:105F40000446144D284625F0D1FD10B9204602B074
:105F500070BD6E680121304603F058F804460028F1
:105F6000F4D10121304603F06BF804460028EDD14E
:105F7000CDE90000AB681E6836B102466B460321CE
:105F80002846B0470446E1E76FF05704DEE700BF5C
:105F9000040F0300200F03002DE9F84307460E46C7
:105FA00090461D4D284625F0A1FD18B90024204635
:105FB000BDE8F88304460121284602F055FE034659
:105FC00008B17833F2D1D5F808901348D9F80C30DD
:105FD0003921984705460028E8D10D21D9F810301D
:105FE0000D483A4698470E21D9F810300A483246F3
:105FF00098471021D9F8103007484246984706487C
:10600000294602F031FE0028D1D0783014BF002498
:1060100001242046BDE8F883040F030030B589B0A1
:1060200000258DF80650154C204625F05FFD10B96F
:10603000002009B030BD0DF10702062101238DF8C3
:106040000710029269440722CDE9051303938DF8E6
:106050001C208DF81050A2685223956802A90222D4
:106060002046A8470028E3D19DF80600A0F1B30020
:10607000B0FA80F0400909B030BD00BFCC0E03007B
:1060800030B5194C1948A0624FF4D82385B023606D
:1060900025F02CFD28B3A06A216801AA21F084FF15
:1060A000F8B9029AA28120464FF48043B3FBF2F381
:1060B000E38102F043F8054648B1A289E389A06A6A
:1060C000216803FB02F283689B68984710B1284659
:1060D00005B030BD204602F031F80546284605B02F
:1060E00030BD4FF0FF35F2E7E81C0020E80E03005A
:1060F00010B5012382B004460DF107020C488DF85B
:106100000740194602F01EFA01280FD909490A4A28
:1061100004464A23094801F0F3FC094801212246BC
:1061200001F0EEFC04484A2101F0E2FC02B010BD8F
:10613000E81C002048170300341703005013030025
:106140006C170300012310B5044619460448224683
:1061500002F088FB01281CBF0423237010BD00BF80
:10616000E81C0020BAB102F1FF3C10B40A4C4A1EF0
:106170008C4412F8013F584003099445E35C83EADC
:106180000010C0F30311C3B2605C80EA0310C0B218
:10619000EFD110BC704770479C17030030B54FEA31
:1061A000410E0EF101049C421ED8C1B100F1FF3C2A
:1061B0000EEB020510461CF8014F23099F2C94BFDB
:1061C0003033573303709CF8003003F00F03092B72
:1061D00094BF3033573343700230A842EBD10023D1
:1061E00002F81130704630BD4FF0000E704630BDE1
:1061F00040B1436803F00303022B06D0032B04D005
:10620000012B05D06FF0150070470368002BF9D003
:10621000002383601846704738B54368816003F0F7
:106220000303022B044610D0032B17D0012B09D0F7
:106230000C490D480D4A452301F062FC0B484521ED
:1062400001F056FC0020606038BD006800256560E4
:106250000028F9D02AF0DEFC284638BD006800236B
:10626000636038BD8051030050130300AC17030076
:1062700000207047014B1B68184700BF1403002023
:1062800030B48B680C685D1C64B14A689A4209DDC1
:10629000013A9A4208BF00238D600CBFA354E0541A
:1062A00030BC70478D6030BC704700BF00B583B014
:1062B0000B46002102460091024800F0BFFE03B0E9
:1062C0005DF804FB756200000FB400B585B006AB45
:1062D000002153F8042B05480091039300F0AEFE13
:1062E00005B05DF804EB04B0704700BF75620000B4
:1062F0000CB430B587B00AAB002553F8042B0095D9
:10630000CDE90230CDE90415044603A9064800F0A2
:1063100095FEDDE904309842B8BF255407B0BDE8CA
:10632000304002B0704700BF816200002DE9F04F9D
:106330000546808B83B00407019205F1140900F132
:10634000DE8100F007039B460229DDF804809AB243
:1063500070D1002A40F0F7802B68002B00F0F78006
:10636000BBF1000F40F05F812B69D3F800A0BAF1B8
:10637000000F00F07B81AB8B23F0070343F0060393
:106380009BB2AB830627BB4500F0D5800024264690
:10639000AA68002A6AD04FF0010B43F00803AB83D0
:1063A000484626F087F8002872D088F31188BFF39A
:1063B0006F8FBBF1000F40F08180A4B1A346B846B7
:1063C0005846314650F8047BFFF726FF04465946ED
:1063D000334642462846002C00F08C80BB46A0473E
:1063E000BBF1000FECD1BAF1000F02D0AB49284647
:1063F000D0474FF02003EFF3118883F31288BFF3E7
:106400006F8F484626F048F8CDF80480002800F049
:106410008380484626F05CF8AB8B23F008039BB2E0
:10642000AB83D9066CD523F0100080B203F0070BC4
:10643000A8835A46AE69002EC0F24C81531F012B2F
:1064400040F22181042A40F0778120F007032C6874
:106450009BB2AB83002C00F09481002743F0200313
:10646000BB45AB833C464FF0000A91D14FF0000B87
:10647000002C92D14FF0000B5C46BAF1000FD0D047
:1064800043F00803AB83484626F014F800288CD16B
:10649000834A84488449B92301F032FB4946834842
:1064A00001F02EFB7E48B92101F022FB88F3118810
:1064B000BFF36F8FBBF1000F3FF47FAFA9680029D6
:1064C0003FF47BAFD1F800802346AB4644464D688D
:1064D00098463A4633465846A84744B12146246870
:1064E0004D6833463A465846A847002CF6D14446F4
:1064F0005D4662E7BB46BBF1000F7FF461AF72E718
:106500009A0624D523F0200080B203F0070BA8835D
:10651000022100F0070317E7614A624864498E23AD
:1065200001F0EEFA4946634801F0EAFA5C488E2130
:1065300001F0DEFA6DE74FF0000B00265C46BAF181
:10654000000F9DD16DE7022A3BD1EB8B63B148462A
:1065500025F0B0FF002800F0E08088F31188BFF339
:106560006F8F03B0BDE8F08FBBF1020F19D040F27E
:106570005D135149514A4B4801F0C2FA4F4840F26D
:106580005D1101F0B5FAEB8B5BB14D4945484B4AC3
:106590004FF4AF7301F0B4FA48484FF4AF7101F013
:1065A000A7FA2B69D3F804A0BAF1000F00F0EB8032
:1065B000AB8B23F0070343F004039BB2AB830427A8
:1065C000E1E6012AC3D12B68002BC0D0BBF1010F3B
:1065D00019D04FF4B2733B49384A324801F090FA6F
:1065E00036484FF4B27101F083FA2B685BB9364933
:1065F0002C48324A40F2651301F082FA2F4840F2EB
:10660000651101F075FA2B69D3F808A0BAF1000FF3
:1066100000F0C680AB8B23F0070343F005039BB269
:10662000AB830527AFE64FF4AB732849234A1D48D7
:1066300001F066FA21484FF4AB7101F059FA2B686A
:10664000002B7FF491AE40F257131F4915481B4AA7
:1066500001F056FA194840F2571101F049FA2B6936
:10666000D3F800A0BAF1000F7FF485AE18490D48A9
:10667000124A4FF4AD7301F043FA10484FF4AD7174
:1066800001F036FA77E6002720F00703062A2C6887
:106690006F609BB22F6060D0AB8325E0E1670000A4
:1066A0007C18030050130300AC180300C418030047
:1066B000DC180300F41803003C180300D017030093
:1066C000541803006418030000180300F4170300B3
:1066D0002418030020F00703002243F001032C6874
:1066E000AB836A602A600127BB454FF0000A7FF444
:1066F0004FAE4FF0000B002C7FF44FAEBAE60129ED
:106700000CBF40F0100340F02003AB834846904696
:1067100025F0D0FE00287FF420AF2A4A2A482B49D2
:10672000B92301F0EDF94946294801F0E9F9254876
:10673000B92101F0DDF910E740F21B13254A264983
:10674000214801F0DDF9234840F21B1101F0D0F996
:10675000AB8B002403F00707C6E754B1EA8B013284
:1067600092B221460968501C174682B20029F9D11D
:10677000EF83E98B43F00202AA83F1B113460227AB
:10678000B2E72746B0E715490F48124A40F26113B5
:1067900001F0B6F90F4840F2611101F0A9F907E7DD
:1067A0000E4909480B4A4FF4B47301F0A9F909489E
:1067B0004FF4B47101F09CF92CE743F02203AB8352
:1067C000022791E77C18030050130300AC18030064
:1067D000C4180300D01703008051030024180300DD
:1067E000F8B504460D4600F114064FF02003EFF310
:1067F000118783F31288BFF36F8F304625F04CFE6C
:1068000050B1304625F064FEA5613A46204601218C
:10681000BDE8F840FFF78ABD074A084808498E23BB
:1068200001F06EF93146074801F06AF902488E21FD
:1068300001F05EF9E5E700BF7C1803005013030088
:10684000DC180300F418030088B138B50C4659B1C0
:106850000B684BB14B683BB105462022002103F089
:1068600047FF2C61002038BD6FF0150038BD6FF078
:10687000150070472DE9F84F002800F0A8808846E1
:10688000002900F0A48001F1040904464846FFF7FE
:10689000AFFC051E38D1D8F8083033F0030340F0C0
:1068A000968004F114064FF02003EFF3118A83F36E
:1068B0001288BFF36F8F304625F0EEFD00283ED0E2
:1068C000304625F005FEE38BA28B4FF6FF718B421D
:1068D00002F007075FD0022F40D0930718D16368FA
:1068E0000022C8F80020002B69D0C3F80080C4F84B
:1068F0000480002F73D12046524602213D46FFF707
:1069000015FD2846BDE8F88FCBDA2846BDE8F88F9C
:10691000062FE4D0052F55D0012F5BD0324A3349E2
:1069200033484FF4E47301F0EBF82F484FF4E4716F
:1069300001F0DEF86FF004054FF0000B13E02D4A74
:106940002B482D498E2301F0DBF831462B4801F00E
:10695000D7F828488E2101F0CBF8B1E70133E38363
:106960003D464FF0010B304625F0A4FDC0B18AF33F
:106970001188BFF36F8FBBF1000FC6D048460021CE
:10698000FFF74AFC06460028BFD03A46414620465B
:106990000023B047B9E76FF00A054FF0000BE2E7BC
:1069A000144A13481649B92301F0AAF8314615488C
:1069B00001F0A6F80F48B92101F09AF8D7E7C4E929
:1069C000008896E76FF085054FF0000BCBE76FF07E
:1069D00015059AE76FF004054FF0000BC3E73D463D
:1069E0004FF0000BBFE700BFD0170300641803008F
:1069F000501303007C180300DC180300F418030094
:106A0000AC180300C418030070B5044600F1140567
:106A10004FF02003EFF3118683F31288BFF36F8FDB
:106A2000284625F039FD002833D0284625F050FDB2
:106A3000A38B03F00703022B0FD0012B28460CBFBA
:106A40006FF004046FF0850425F034FD90B186F3F7
:106A50001188BFF36F8F204670BDE38B43B3013BBA
:106A60009BB2E383002B35D02846022425F022FD7B
:106A70000028ECD11B4A1C481C49B92301F040F8FE
:106A800029461B4801F03CF81648B92101F030F8BE
:106A9000DDE7144A144817498E2301F031F82946DE
:106AA000154801F02DF80F488E2101F021F8BCE7C0
:106AB00040F2EF13114A12490B4801F021F80F4838
:106AC00040F2EF1101F014F8E38B013B9BB2E3833A
:106AD000002BC9D12046324602210224FFF726FCB2
